:020000040800F2
:200000005825002041230008992100089B2100089D2100089F210008A121000800000000F9
:20002000000000000000000000000000A3210008A521000800000000A7210008A921000884
:20004000BD230008C1230008C5230008C9230008CD230008D1230008D5230008D9230008F0
:20006000DD230008E1230008E52300084D220008E9230008ED230008F1230008F52300087D
:20008000F9230008FD2300080124000805240008092400080D2400081124000815240008CA
:2000A000192400081D2400082124000825240008292400082D2400083124000835240008A8
:2000C000392400083D2400084124000845240008492400084D240008EB21000851240008F5
:2000E00055240008592400085D2400084FF460514843401C0100481E0029FBD1704710B5BE
:2001000000F040FB5FF4803000F05CFB00F077FB04002000C0B2012827D1002000F0ACFB9A
:20012000002000F0B9FB4FF4806000F0ADFB002000F0BBFB022000F0ABFC102000F0B1FCF4
:200140005FF480115FF4803000F078FB012000F081FB392000F055FC0028FAD0022000F02A
:200160007EFB00F084FB0828FBD110BD10B504002100C9B244F21D2000F00BFC2100C9B263
:200180005FF4C02000F013FC10BD80B500215FF0006000F07DFD4FF4A06000F041FD01BDC2
:2001A0001CB5042100226C46200000F095FD10208DF8030003208DF80200DFF86C45A088C1
:2001C000ADF800006946206800F0D6FDA08821684861DFF85845A088ADF8000069462068AE
:2001E00000F0CAFDA08821684861DFF84445A088ADF800006946206800F0BEFDA08821682E
:200200004861DFF83045A088ADF800006946206800F0B2FDA08821684861DFF81C45A0888C
:20022000ADF800006946206800F0A6FDA08821684861DFF80845A088ADF8000069462068CD
:2002400000F09AFDA0882168486113BD38B5FFF756FFFFF79AFF0120FFF788FF72B6FFF76A
:200260009FFF0A20FFF742FF00F012FE00F01EFF45F25554DFF8C8542888A04208D100F044
:20028000DCF8002804D14AF6AA202880052068805FF4E13000F0A2FF00F0EBFF00210120BD
:2002A00000F0F8FF01F07AF82888A04204D10120DFF89014086003E04020DFF8881408606B
:2002C00062B631BDDFF87C040178890748D5016831F002010160DFF870040168491C016033
:2002E0000078C0071ED5DFF84004818800684161DFF83804818800684161DFF83404818860
:2003000000684161DFF82C04818800684161DFF82804818800684161DFF820048188006837
:2003200041611DE0DFF80004818800680161DFF8FC03818800684161DFF8F4038188006848
:200340004161DFF8F003818800680161DFF8E803818800684161DFF8E403818800684161B8
:20036000704738B50400002072B62568DFF8DC132940B1F1005F0DD1DFF8D403211D096895
:200380000160DFF8D01300680860206880F30888086880470120DFF8AC1308600020DFF89A
:2003A000B813086062B631BD80B5DFF89803017849060FD4DFF8A013096829290AD3DFF8B1
:2003C0008013098845F25552914203D1016851F0800101600078000603D5DFF88003FFF742
:2003E000C0FF01BD70B5DFF878430721200001F0FEF800280DD00721200001F006F95FF40A
:20040000E13000F0EBFE00F034FF0021012000F041FFDFF85043200001F0BEF900280BD028
:200420000021200000F035F840F60C15002632002900200000F050FC70BDF8B50024CA4E14
:20044000002500270622C949300001F0BBF900281CD1062005002800C0B2322810DA30787B
:200460000700761C3800C0B2202803DB3800C0B2802803DB3800C0B2002801D16D1CEAE7E5
:200480002800C0B2322801D1012004002000C0B2F2BD2DE9F34F85B004000026002740F61C
:2004A0000C18A146B24DAA4642464946504601F0BDF96888284401796888284442794FF4BE
:2004C0008070424352FA81F0ADF80E006988091F15F1080001F0FEF9ADF80C00BDF80E00B4
:2004E000BDF80C10884240F00F81687B8DF808000020B4F80B10ADF80A10BDF80A104FF677
:20050000FF72914206D0BDF80A008D498988884240F007819DF80800012800F0A680022893
:2005200033D0032800F0CC80042805D005280BD0F72800F0DB80E7E000208749086001F0CE
:200540000DFB8C494880DFE07E48007840061BD5002600200021ED7B804A2B00DBB212EB75
:200560008327974210D384480168B9420CD117F580610160380001F01BFC80464046C0B2BC
:2005800001F0C4FB7B494880BEE06E48007840066AD5002100220023287A002864D1E87B06
:2005A0008DF80000286901906869049001986B4EB04259D37149019A049882180868824200
:2005C00002D0086800284FD101980860564EB08831680861554FB88839680861DFF850811C
:2005E000B8F80400D8F800100861DFF84891B9F80400D9F800100861DFF83CA1BAF80400E5
:20060000DAF800100861DFF834B1BBF80400DBF800100861049A15F11801019801F0D3FBBB
:20062000002807D0049A01999DF8000001F0E0FA50494880B08831684861B88839684861BE
:20064000B8F80400D8F800104861B9F80400D9F800104861BAF80400DAF800104861BBF82A
:200660000400DBF8001048614EE0424D01F0E2F968806888002808D06988281D00F034FE31
:20068000002068800220FFF731FD2E480168490849000160016851F0400101604AF6AA20DC
:2006A0002749088000F078FD00F005FA2E4801F07FFB2A483049086000203049086023E0B6
:2006C000FFF7BBFE012810D101F0FEF9294948801C48016851F08001016045F25550184912
:2006E000088000F059FD00F0EFF90DE0214D00200190002000903223214A9DF80810281DE6
:2007000001F038F96880FFE71A4D6888002808D06988281D00F0E8FD002068800220FFF767
:20072000E5FC07B0BDE8F08F8C230008942300089C230008A4230008AC230008B42300083B
:20074000301B0020381B0020441B00200000FE2F4C1B0020481B0020501B00200040000832
:2007600000440040140000200050000884230008200900202C1200203C1B0020401B002021
:2007800050220008DFF8C012086850F001000860DFF8B8221368DFF8B802034013600B6837
:2007A000DFF8B00203400B60086830F480200860106830F4FE0010605FF41F00DFF8981269
:2007C00008607047DFF880120A6832F480320A600A6832F480220A600200B2F5803F03D0FE
:2007E000B2F5802F05D009E00A6852F480320A6004E00A6852F4A0220A60FFE7704738B5BF
:200800000020009000240025312000F0FAF805000098401C009000984FF6FF71884203D039
:200820002800C0B20028EFD0312000F0EAF8002801D0012000E00020C0B232BD30B4002392
:20084000824D2C6834F47C1451EA000214432C6030BC70470100C9B2804A1160704700212B
:200860007A4B1A689208920002431A6070477748006810F00C0070470021744B1A6832F021
:20088000F00202431A6070470021704B1A6832F4E06202431A60704700216C4B1A6832F434
:2008A000605252EAC0021A6070470021674B1A6832F4404202431A6070472DE9F04F01008E
:2008C0000022002500200026604FD7F800C01CF00C0C6346002B04D0042B05D0082B06D074
:2008E00023E0604A0A6022E05F4A0A601FE03A6812F470123B6813F480331800920C921CE2
:200900001500002804D1594A02FB05F20A600BE03A68920304D5564A02FB05F20A6003E0E8
:20092000514A02FB05F20A6001E04E4A0A603C6814F0F0042409DFF83C9119F804E00A6807
:2009400032FA0EF24A603B6813F4E0631B0A19F803804A6832FA08F28A603A6812F46052FF
:20096000D20A19F80290D1F804A03AFA09FAC1F80CA03F6817F44047BF0BDFF8FCA01AF867
:2009800007A0D1F80CB0BBFBFAFBC1F810B0BDE8F08F0A00D2B2002A04D0384A1368034314
:2009A000136003E0354A13688343136070470A00D2B2002A04D0324A13680343136003E0D8
:2009C0002F4A13688343136070470A00D2B2002A04D02C4A13680343136003E0294A13682C
:2009E0008343136070470A00D2B2002A04D0264A13680343136003E0234A136883431360D3
:200A0000704730B401000020002300250A00D2B25209D2B2012A02D10B48046806E0022A96
:200A200002D10F48046801E0184804680B00DBB213F01F032000D840C00701D5012000E0E0
:200A40000020C0B230BC704700100240041002400000FFF8FFFFF6FE081002406000424292
:200A60002010024000127A00001BB70000093D00808D5B000000002010000020181002403E
:200A80001C1002400C10024010100240241002400021DFF840311A6812F0380202431A60CC
:200AA0007047DFF830110A6832F010020A600A6802430A607047DFF82001DFF8201101601E
:200AC000DFF81C1101607047DFF81801016851F080010160704770B5040004265FF0FF30F6
:200AE00000F086F805002800C0B204281AD1DFF8F460306850F002003060DFF8EC00046016
:200B0000306850F0400030605FF0FF3000F070F805002800C0B2052804D0316841F6FD707A
:200B2000014031602800C0B270BDF8B504000D000427002000905FF0FF3000F059F80600BE
:200B40003000C0B204282DD1DFF89870386850F00100386025805FF0FF3000F049F8060017
:200B60003000C0B2042814D1A01C00902800000C009908805FF0FF3000F03AF8060030004B
:200B8000C0B205280ED0396841F6FE700140396008E03000C0B2052804D0396841F6FE70E7
:200BA000014039603000C0B2F2BD04210F480268D20701D501200AE00268520701D50220AF
:200BC00005E00068C00601D5032000E00420C0B27047000000200240042002402301674544
:200BE000AB89EFCD10200240142002400C20024070B504000425FFF7D8FF06003000C0B2E8
:200C0000012806D1002C04D0FFF7CFFF0600641EF4E7002C01D1052006003000C0B270BDB5
:200C200025490143254A11607047F0B4002200230F24C17800291FD02049096811F4E061DE
:200C4000D1F5E061090AD1F104052B00CC4045789D408678264035432D012A00184D0678C7
:200C6000AA550125067816F01F06B540154E07787F1146F8275009E00121057815F01F05D9
:200C8000A940114D0678761145F82610F0BC70470E4A0A4002430E4B1A607047042805D1BF
:200CA0000C490A6852F004020A6004E009490A6832F004020A6070470000FA050CED00E0F2
:200CC00000E400E000E100E080E100E080FFFF1F08ED00E010E000E062F30F2262F31F42D0
:200CE000401810F0030308D0C91A1FD3DB0748BF00F8012D28BF20F8022D130030B414465B
:200D00001546103928BF20E93C00FAD8490728BF20E90C0048BF40F8042D890028BF20F8ED
:200D2000022D48BF00F8012D30BC7047C91818BF00F8012DCB0728BF00F8012D704730B45C
:200D4000002513E050F8042BD30744BFA9F101039A18091F042942F8045BFAD213468C0731
:200D600044BF15809B1CC90748BF1D7050F8041B0029E7D130BC7047F0B5002200230024C7
:200D800000250026002791F803C01CF00F0C91F803E05FEACE6E02D58A7852EA0C0C0A78CE
:200DA00012062AD00268160000221400082C23D25FF0010E1EFA04F215000A882A401300B2
:200DC000AB4217D1A20015000F22AA401700BE431CFA05F21643CA78282A04D11EFA04FE6B
:200DE000C0F814E006E0CA78482A03D11EFA04FEC0F810E0641CD9E706600A88B2F5807F39
:200E00002EDB4268160000221400082C27D25FF0010E14F108021EFA02F215000A882A401C
:200E20001300AB4219D1A20015000F22AA401700BE431CFA05F21643CA78282A04D114F10A
:200E400008021EFA02F24261CA78482A05D114F108021EFA02FEC0F810E0641CD5E746609E
:200E6000F0BD30B40EE00268436802440830DC0744BFA9F10104E31852F8045B43F8045B9D
:200E8000091FF9D150F8041B0029ECD130BC704780B503208DF8020014208DF8030081480C
:200EA0008188ADF8001069460068FFF765FF7E488188ADF8001069460068FFF75DFF01BD58
:200EC000002064210800411E0028FBD1704743F233314843401C0100481E0029FBD17047C8
:200EE00010B5704CA088216808616F48818800680161FFF7E5FF20688068002801D1012068
:200F000000E00020217911F00101084201D0002011E0A08821684861FFF7D2FF2068806877
:200F2000A188084201D0002005E0A08821684861FFF7C6FF012010BD38B55B4CA088216820
:200F40004861FFF7BDFF574DA88829684861FFF7B7FFA08821680861FFF7B2FFA8882968FA
:200F60000861FFF7ADFF31BD10B54F4CA08821684861FFF7A5FF4B48818800684161FFF788
:200F80009FFFA08821680861FFF79AFFA08821684861FFF795FF10BD10B5434CA088216854
:200FA0004861FFF78DFF3F48818800680161FFF787FFA08821680861FFF782FFA0882168EE
:200FC0004861FFF77DFF10BD38B5374CA08821684861FFF775FF334DA88829680861FFF755
:200FE0006FFFA08821680861FFF76AFF28688068A988084204D0A08821684861002003E0E6
:20100000A08821684861012032BD70B5040008252800451EC0B2002817D0234EB0883168C2
:201020004861200604D51F4881880068016103E01C48818800684161FFF742FFB08831686C
:201040000861FFF73DFF6400E2E7174881880068416170BDF8B508240025124EB0883168FA
:2010600008612000441EC0B2002813D06D000E4FB88839684861FFF723FFB8883968086152
:20108000FFF71EFF30688068B1880842E9D055F00105E6E704488188006841612800C0B270
:2010A000F2BD00005C230008642300082DE9F8435FF00008002441F6F875474E320008210B
:2010C000280000F0C5FE07003800C0B2002810D05FF000085FF000090621300000F0FAFB91
:2010E000F18802000B0092B29BB29A4201D000221700320008214FF4F05000F0A9FE8046B8
:201100004046C0B200280FD000245FF000090621300000F0DFFBF18802000B0092B29BB21C
:201120009A4201D00022904658EA0700C0B2002809D10120B0804AF6AA203080072070802B
:2011400000F02AF826E03800C0B201280FD14046C0B200280BD132000821280000F078FEDF
:20116000320008214FF4F05000F039FF12E03800C0B200280ED14046C0B201280AD1320098
:2011800008214FF4F05000F063FE32000821280000F025FFBDE8F18338B500240E4D002016
:2011A000E8800621280000F095FBE8802A00082141F6F87000F013FF012809D12A00082146
:2011C0004FF4F05000F00BFF012801D1012004002000C0B232BD0000301B002030B585B06C
:2011E000040010208DF8030003208DF802004F4DA888ADF8000069462868FFF7BDFDA888F9
:20120000296848614A4D280000F0ECF849488188ADF8001003218DF8021018218DF8031026
:2012200069460068FFF7A8FD43488188ADF8001004218DF8031069460068FFF79DFD0194BA
:201240000020ADF808000020ADF80A000020ADF80C000020ADF810000C20ADF80E0001A9C3
:20126000280000F007F90121280000F079F905B030BD80B526208DF8000001208DF8010061
:2012800000208DF8020001208DF803006846FFF7CCFC01BD70B504000D00254E40F2277161
:2012A000300000F0EFF92200D2B240F22551300000F065F92A00D2B240F22661300000F0D3
:2012C0005EF970BD0100C9B21C4A1180184909880906FBD570474FF460514843401C0100B3
:2012E000481E0029FBD170472DE9F04104000D000026DFF83880B8F80400D8F800100861D2
:201300000120FFF7E8FF0027AF4204D2E05DFFF7D9FF7F1CF8E70120FFF7DDFFB8F80400B5
:20132000D8F800104861BDE8F08100007C230008004400406C230008742300080444004025
:2013400010B4020052B2002A05D40A011D4B040064B21A5508E00A011B4B040064B214F04D
:201360000F04234403F8042C10BC704710B50400601EB0F1807F01D301200EE0601E1349A1
:2013800008600F215FF0FF30FFF7DAFF00201049086007200F490860002010BD80B504205A
:2013A000FFF77CFC0C48FFF7E1FF00200B49086000200B4908600F215FF0FF30FFF7C0FF7A
:2013C00001BD000000E400E018ED00E014E000E018E000E010E000E0382C0500501B002036
:2013E000541B002010B50400584884420AD101214FF48040FFF7E9FA00214FF48040FFF73C
:20140000E4FA36E0524884420AD101215FF40030FFF7E9FA00215FF40030FFF7E4FA28E09F
:201420004C4884420AD101215FF48020FFF7DBFA00215FF48020FFF7D6FA1AE0464884426F
:201440000AD101215FF40020FFF7CDFA00215FF40020FFF7C8FA0CE04048844209D10121DD
:201460005FF48010FFF7BFFA00215FF48010FFF7BAFA10BD2DE9F84F86B004000D00002695
:2014800000275FF000085FF000095FF0000AA8890028A346218A4CF6FF700140E88801438A
:2014A000009100982082A1894EF6F3100140AA882889024368890243114300910098A081B3
:2014C000A18A4FF6FF400140A889014300910098A08201A8FFF7F1F91C48834501D1049938
:2014E00000E00399A089000407D5192000FB01F02A685200B0FBF2F206E0192000FB01F0C4
:201500002A689200B0FBF2F26420B2FBF0F6360133001B09642000FB1323A089000408D5B4
:20152000D80032306427B0FBF7F010F00700064307E0180132306427B0FBF7F010F00F0076
:201540000643268107B0BDE8F08F0000003801400044004000480040004C0040005000401F
:201560000A00D2B2002A04D0828952F40052828104E083894DF6FF721340838170472DE971
:20158000F0410023002500275FF0000E0C0040F66A16A4B2B44280460C00E4B26409E4B2D5
:2015A0000E00B6B216F01F065FF0010C1CFA06FC012C02D118F10C0806E0022C02D118F109
:2015C000100801E018F114081300DBB2002B06D0D8F800305CEA0303C8F8003005E0D8F85B
:2015E000003033EA0C03C8F80030BDE8F08102000023080080B2B0F5007F1088084201D053
:20160000012000E00020C0B270470A0092B292050A0092B2D24302807047F0B40400002730
:201620000020002200260B0040F66A159BB2AB420D00EDB26D09EDB20B009BB213F01F030A
:201640005FF0010C1CFA03F3012D02D1A089034006E0022D02D1208A034001E0A08A034092
:201660000A0092B2120A92B21CFA02F220880240002B03D0002A01D0012000E00020C0B23C
:20168000F0BC704770B4002200240B0040F66A159BB2AB420B009BB21B0A01259D402E00D5
:2016A000B6B2F643068070BC70470A78002A06D0812A0DD0822A1ED0842A3DD068E0020077
:2016C000D2B27E2A03D181220A707E228A715FE00200D2B2552A04D182220A705522CA7169
:2016E00008E00200D2B27E2A02D181220A7001E000220A704CE00200D2B2082A0DDB020099
:20170000D2B2F12A09DA84220A700200D2B2D21C8A80087203224A800DE00200D2B2002AA3
:2017200007D184220A7014228A80087203224A8001E000220A702BE00A7A002A1CD14A8813
:201740000E2A04D18A8852FA80F28A8014E04A880F2A06D18A880300DBB21B029A188A8051
:201760000AE04A88102A02D18A888A8004E04A88112A01D18A888A804A88531C4B8092B255
:201780000A4490714A888B889A4201D306220A700022C1F808297047010000200A78052A2E
:2017A00008D14A88092A02DB0122100007E000220A7004E00A78062A01D101221000C0B2AB
:2017C000704700000300002013F0030F09D0521E22BF13F8010B11F801CBB0EB0C00F3D09A
:2017E000704711F0030F14D1121F22BF53F8040B51F804CB6045F7D0121D0AD200BA9CFAEF
:201800008CFCB0EB0C0038BF6FF0000088BF01207047521E22BF13F8010B11F801CBB0EB4C
:201820000C00F6D0521C08BF1046704762B38B0708D0521E11F8013B00F8013B00F0248098
:201840008B07F6D1830740F0208000BF103A07D330B4B1E83810103AA0E83810F9D230BC5C
:20186000530724BFB1E80810A0E8081044BF51F8043B40F8043BD20724BF31F8022B20F8AE
:20188000022B44BF0B7803707047121F17D35B0009D151F8043B20F8023B1B0C121F20F8CE
:2018A000023BF6D20BE051F8043B00F8013B1B0A20F8023B1B0C121F00F8013BF3D238BFBA
:2018C000121D521E24BF11F8013B00F8013BF8D87047000070B403000022002400264FF6AE
:2018E000FF7000258D4214D25A5D504000221600082E0CD2C20706D580B2020048F20840B2
:2019000090EA520001E080B24008761CF0E76D1CE8E780B2C04380B270BC704770B403006E
:201920000022002600244FF6FF7000252A000E0092B2B6B2B24218D22A0092B29A5C5040AC
:2019400000221400220092B2082A0CDAC20706D580B2020048F2084090EA520001E080B29A
:201960004008641CEEE76D1CE0E780B2C04380B270BC70472DE9F74F82B0070098460E9C13
:201980000F9D00260020ADF804007E20B855761C5520B855761C18F10B00B855761C012087
:2019A000B855761C0020B855761C0020B855761C0020B855761C1F20B855761C9DF80C00CC
:2019C000B855761C0020B855761C2000C0B200280CD1C1465FFA89F90498009007EB060A02
:2019E0004A4600995046FFF721FF0BE0C1465FFA89F95FF0000A07EB060B52464946584624
:201A0000FFF76AF956FA88F6BC55761CBD55761CB878411E89B2B81CFFF780FF0100B95536
:201A2000761C080080B2000AB855761C300005B0BDE8F08F70B500260024DC4D7E2005EB02
:201A400006010871761C552005EB06010871761C092005EB06010871761C012005EB0601BA
:201A60000871761C002005EB06010871761C002005EB06010871761C002005EB0601087187
:201A8000761C1F2005EB06010871761C012005EB06010871761C002005EB06010871761C2E
:201AA000A879411E89B2A81DFFF738FF010005EB06000171761C080080B2000A05EB060242
:201AC0001071761C300070BD70B500260024B74D7E2005EB06010871761C552005EB060117
:201AE0000871761C092005EB06010871761C012005EB06010871761C002005EB06010871FD
:201B0000761C002005EB06010871761C002005EB06010871761C1F2005EB06010871761CAE
:201B2000032005EB06010871761C002005EB06010871761CA879411E89B2A81DFFF7EEFEFC
:201B4000010005EB06000171761C080080B2000A05EB06021071761C300070BD70B5002693
:201B60000024924D7E2005EB06010871761C552005EB06010871761C092005EB06010871B2
:201B8000761C012005EB06010871761C002005EB06010871761C002005EB06010871761C4C
:201BA000002005EB06010871761C1F2005EB06010871761C042005EB06010871761C00207C
:201BC00005EB06010871761CA879411E89B2A81DFFF7A4FE010005EB06000171761C0800E8
:201BE00080B2000A05EB06021071761C300070BD2DE9F84304000D00160000275FF000084B
:201C0000DFF8A8917E2009EB070108717F1C552009EB070108717F1C002009EB07010871EC
:201C20007F1C012009EB070108717F1C002009EB070108717F1C002009EB070108717F1C78
:201C4000002009EB070108717F1C1F2009EB070108717F1C022009EB070108717F1C0020B3
:201C600009EB070108717F1C09EB070004717F1C09EB070005717F1C2800000A09EB07010F
:201C800008717F1C2800000C09EB070108717F1C2800000E09EB070108717F1C09EB0700AB
:201CA00006717F1C3000000A09EB070108717F1C3000000C09EB070108717F1C3000000E3E
:201CC00009EB070108717F1C2000C0B2002807D0320009EB0700011D280000F09AF8F7195E
:201CE0003800811E89B219F10600FFF717FE010009EB070001717F1C080080B2000A09EB76
:201D0000070210717F1C3800BDE8F283F8B5040000270025254E7E2006EB070108717F1C31
:201D2000552006EB070108717F1C0A2006EB070108717F1C012006EB070108717F1C00209C
:201D400006EB070108717F1C002006EB070108717F1C002006EB070108717F1C1F2006EBEC
:201D6000070108717F1C052006EB070108717F1C002006EB070108717F1C06EB070004717B
:201D80007F1CB079411E89B2B01DFFF7C7FD010006EB070001717F1C080080B2000A06EB23
:201DA000070210717F1C3800F2BD00002C12002010B504002000FEF78EFE042801D1012030
:201DC00000E0002010BD2DE9F04704000D0016000020002101275FF00108A9465FF0000AB9
:201DE000B24512D25046800859F820101AEB0400FEF79BFE07003800C0B2042802D0002003
:201E0000804602E01AF1040AEAE74046C0B2BDE8F0872DE9F84F04000D00160000275FF022
:201E200000085FF000095FF0010A0094AB46FEF742FE0021B1EB960F06D2009850F82100F3
:201E40004BF82100491CF5E75046C0B2BDE8F28F2DE9F04104000D0016005FF001080027C2
:201E6000280080B2002860D0FFF73AF8002801D1002080464046C0B2002808D0A020FFF7FA
:201E8000C4F8FFF7A1F8002801D1002080464046C0B2002808D0200080B2000AC0B2FFF75B
:201EA000B4F8FFF791F880464046C0B2002806D02000C0B2FFF7A9F8FFF786F88046404652
:201EC000C0B2002805D0FFF70BF8002801D1002080464046C0B2002808D0A120FFF795F87E
:201EE000FFF772F8002801D1002080466D1E4046C0B2002817D0002007003800290080B256
:201F000089B2884208D2FFF7A5F8390089B27054FFF72AF87F1CF0E7FFF79CF8390089B28F
:201F20007054FFF739F8FFF707F84046C0B2BDE8F0812DE9F04104000D00160000275FF0CF
:201F40000108280080B2002842D0FEF7C9FF002801D1002080464046C0B2002808D0A0208F
:201F6000FFF753F8FFF730F8002801D1002080464046C0B2002808D0200080B2000AC0B25C
:201F8000FFF743F8FFF720F880464046C0B2002806D02000C0B2FFF738F8FFF715F88046C5
:201FA000002007003800290080B289B288420DD24046C0B2002807D0380080B2305CFFF7A0
:201FC00024F8FFF701F880467F1CEBE7FEF7B4FF0520FEF77CFF4046C0B2BDE8F0812DE962
:201FE000F04704000D00160000275FF000085FF0000A200010F01F0F1BD014F01F00D0F18F
:20200000200007002800390080B289B2884200D22F00404680B206EB0002390089B218EBDE
:20202000040080B2FFF785FF8146ED1B17EB080801E05FF001094846C0B200281FD0280096
:2020400080B200281BD0202007002800390080B289B2884200D22F00404680B206EB0002B0
:20206000390089B218EB040080B2FFF762FF8146ED1B17EB08084846C0B20028DFD1484615
:20208000C0B2BDE8F087000080B53D49086850F0010008603B4A13683B48034013600B6832
:2020A0003A4803400B60086830F480200860106830F4FE0010605FF41F003549086000F002
:2020C00001F801BD80B500F001F801BD82B000200190002000902A49086850F4803008609B
:2020E000086810F4003000900198401C01900098002804D101984FF6FF729042F0D108683F
:20210000800302D50120009001E0002000900098012831D11F48026852F01002026002686F
:20212000920892000260026852F00202026015480268026002680260026852F48062026016
:20214000026832F47C120260026852F4A02202600A6852F080720A600A689201FCD50168DC
:20216000890889000160016851F002010160016811F00C010829FAD102B0704700000000FA
:2021800000100240041002400000FFF8FFFFF6FE08100240002002407047FEE7FEE7FEE78C
:2021A000FEE770477047704723480168491C016000681521B0FBF1F201FB1200002804D144
:2021C0001E48016851F0020101601D48017809060AD5D0F80819491DC0F80819D0F80819AE
:2021E000322901D305210170704770B5154C40F2255529002000FFF710FA00280CD00026BD
:2022000029002000FFF73EFA0F4805880C492800C0B2FFF74AFA0AE04FF458712000FFF72E
:20222000FCF9002803D008480088C005C00D208810F47C40208070BD501B0020381B002011
:2022400014000020004400400444004070470000426F6F742056332E305F32303033303662
:20226000303020474433324631787800000000000000000000000000000000000000000087
:202280000000000010B5074979441831064C7C44163404E00A68081D114488470146A142FE
:2022A000F8D110BD080000002800000093EAFFFF441B00001400002000000000A7EBFFFFBA
:2022C0001400000068000000000000200000000000F00DF8002801D0FFF7D4FFAFF3008089
:2022E0000020AFF3008000F004F800F00CF80120704780B5FDF7AAFFFDF7E4FFFEF754F8FA
:20230000FEF770F8F8E700F001B800000746384600F002F8FBE7000080B5AFF30080024A9E
:2023200011001820ABBEFBE72600020000000000010203040102030406070809020406089B
:2023400001488047014800478920000851230008AFF30080AFF30080FFF7BAFF000C014070
:2023600080000000000C014040000000000801400400000000080140080000000008014069
:2023800010000000534D353030322000000C014004000000000C014008000000000C0140B3
:2023A00010000000000C014020000000000C014000010000000C014000020000FFF7FEBF50
:2023C000FFF7FEBFFFF7FEBFFFF7FEBFFFF7FEBFFFF7FEBFFFF7FEBFFFF7FEBFFFF7FEBF65
:2023E000FFF7FEBFFFF7FEBFFFF7FEBFFFF7FEBFFFF7FEBFFFF7FEBFFFF7FEBFFFF7FEBF45
:20240000FFF7FEBFFFF7FEBFFFF7FEBFFFF7FEBFFFF7FEBFFFF7FEBFFFF7FEBFFFF7FEBF24
:20242000FFF7FEBFFFF7FEBFFFF7FEBFFFF7FEBFFFF7FEBFFFF7FEBFFFF7FEBFFFF7FEBF04
:20244000FFF7FEBFFFF7FEBFFFF7FEBFFFF7FEBFFFF7FEBFFFF7FEBFFFF7FEBFFFF7FEBFE4
:2040000030310020C9A80008C1A10008C3A10008C5A10008C7A10008C9A100080000000080
:20402000000000000000000000000000CBA10008CDA1000800000000CFA10008D1A10008A4
:204040001DAA000821AA000825AA000829AA00082DAA000831AA000835AA000839AA000878
:204060003DAA000841AA000845AA000849AA0008C1A3000899A30008C7A200089FA2000802
:2040800019A200083DA200084DAA000851AA000855AA000859AA00085DAA000861AA000840
:2040A00065AA000869AA00086DAA000871AA000875AA000879AA00087DAA000881AA0008D8
:2040C00085AA000889AA00088DAA000891AA000895AA000801A3000865A20008D1A300086E
:2040E00099AA00089DAA0008A1AA0008A5AA0008A9AA0008ADAA0008B1AA0008B5AA0008F8
:20410000B9AA0008BDAA0008C1AA0008C5AA00083BA400083FA30008C9AA0008CDAA000810
:20412000D1AA0008D5AA000805A400082BA400082DE9F8430600EC275FF00008EC24DFF845
:20414000D0563000C0B2604305EB000942463900484600F0E3FC3000C0B2002823D14FF4DC
:2041600016513000C0B203F019FD01213000C0B203F0C6FD20223000C0B26043284410F1BF
:2041800012013000C0B203F0F9FD80223000C0B204FB00F405EB040010F134013000C0B27E
:2041A00003F044FE10E04FF416513000C0B203F0F5FC01213000C0B203F0A2FD0022012110
:2041C0003000C0B203F0BCFDBDE8F18338B504002000C0B200282AD1DFF838060168490803
:2041E00049000160DFF83006016849084900016000212000C0B203F083FDDFF8205600220F
:2042000040F22441280004F048F800228021280004F07BF800224021280004F076F800212B
:20422000280004F02BF8280003F06AFF17E02000C0B2012813D100212000C0B203F060FD22
:20424000002200212000C0B203F07AFDDFF8D0550021280004F012F8280003F051FF31BD83
:2042600070B403000022002600244FF6FF7000252A000E00F6B292B2B6B2B24218D22A003E
:2042800092B29A5C5040002214002200D2B2082A0CDAC20706D580B202004AF2010090EAD1
:2042A000520001E080B24008641CEEE76D1CDFE780B270BC70472DE9F04104000D0000261A
:2042C00000270020A178214491F8048001213200D2B2A954761C4146C9B2012938D10F2041
:2042E0003100C9B26854761C00203100C9B26854761C01203100C9B26854761C002031003E
:20430000C9B26854761C02203100C9B26854761CB4F8D60080B2000A3100C9B26854761C00
:20432000B4F8D6003100C9B26854761CB4F8D80080B2000A3100C9B26854761CB4F8D800C3
:204340003100C9B26854761C0F2084F8D40082E04046C0B202281CD14D203100C9B268549E
:20436000761C03203100C9B26854761C20203100C9B26854761C00203100C9B26854761C3A
:2043800008203100C9B26854761C4D2084F8D40061E04046C0B200281CD106203100C9B21E
:2043A0006854761C00203100C9B26854761C00203100C9B26854761C00203100C9B26854F3
:2043C000761CFF203100C9B26854761C062084F8D40040E04046C0B203281CD10620310035
:2043E000C9B26854761C00203100C9B26854761C00203100C9B26854761C00203100C9B2F4
:204400006854761C00203100C9B26854761C062084F8D4001FE04046C0B204281BD103208C
:204420003100C9B26854761C00203100C9B26854761C01203100C9B26854761C00203100FC
:20444000C9B26854761C03203100C9B26854761C032084F8D4003100C9B22800FFF700FF3A
:2044600001003000C0B22954761C080080B2000A3200D2B2A854761CF6B2300080B2BDE853
:20448000F0812DE9F34F81B0040015000026002700208DF80000B4F88000310089B2083146
:2044A00088426ADB300080B2204440782900C9B2884260D12800C0B20F2802D108200700FD
:2044C00013E02800C0B2062802D1082007000CE02800C0B24D2802D11520070005E0280008
:2044E000C0B2032801D10B200700B4F88000390089B211FA86F188423DDB5FF000085FF071
:2045000000095FF0000A0021300080B220443A0092B2104410F8020C01430902300080B2B9
:2045200020443A0092B2104410F8010C0143ADF80210300080B22044390089B2084430F887
:2045400002BC3800811EC9B2300080B22044FFF787FEBDF80210020092B2914205D05946B6
:20456000020089B292B2914205D102990E8001218DF8001001E0761C8DE79DF80000BDE810
:20458000FE8F10B40100002201204B78032B0ED18B785B1C8B7000230B748B78CC78A34273
:2045A00002D206234B7011E000234B700EE00B7C5B1C0B740B7C032B02DA06234B7005E0AF
:2045C00000234B7000230B7400231800C0B210BC7047002141700021C170002181700021D4
:2045E00001740021C1600178C90730D5C1784A1CC2700222C9B201440A71002180F8D51008
:20460000D0F8E81090F8D52001EB82010989A0F8D810D0F8E81090F8D52001EB8201C988DF
:20462000A0F8D6107F490968C0F8E010C1784A1CC2700122C9B201440A71C1784A1CC2701B
:204640000022C9B201440A7101214170DEE00178090729D5002180F8D510D0F8E81090F81F
:20466000D52001EB82010989A0F8D810D0F8E81090F8D52001EB8201C988A0F8D610694997
:204680000968C0F8DC10C1784A1CC2700122C9B201440A71C1784A1CC2700022C9B2014423
:2046A0000A7101214170B1E00178C90640F18E8090F8D510002941D15A49D0F8DC2012F57E
:2046C000FA620B689A4239D2B0F8E4205A2A15DA012280F8D520D0F8E82090F8D53002EB2B
:2046E00083021289A0F8D820D0F8E82090F8D53002EB8302D288A0F8D62014E0022280F8C3
:20470000D520D0F8E82090F8D53002EB83021289A0F8D820D0F8E82090F8D53002EB8302DB
:20472000D288A0F8D6200968C0F8DC10C1784A1CC2700122C9B201440A712EE090F8D510D2
:2047400001292AD13749D0F8DC2012F5FA620B689A4222D2B0F8E4205A2A1EDB022280F885
:20476000D520D0F8E82090F8D53002EB83021289A0F8D820D0F8E82090F8D53002EB83027B
:20478000D288A0F8D6200968C0F8DC10C1784A1CC2700122C9B201440A71B0F8D01000293C
:2047A0000AD1B0F8CE10002906D1C1784A1CC2700022C9B201440A71C1784A1CC270042273
:2047C000C9B201440A71012141701FE00178490709D5C1784A1CC2700322C9B201440A71F4
:2047E0000121417012E0017889070FD5C1784A1CC2700222C9B201440A71C1784A1CC27006
:204800000422C9B201440A7101214170704700007C23002058000240440002400038014055
:2048200000500040102700202DE9F04704000D0000205FF00309A97829440E793100C9B2F7
:20484000022940F0B18004274846C0B204EB000815F1BD0A3A004146504602F0AFFE19F1DD
:2048600004090020A5F8C200B5F8C2104846C0B2205C0143A5F8C210B5F8C2000002A5F8F0
:20488000C200B5F8C2104846C0B2204440780143A5F8C21019F102090020A5F8C400B5F8C5
:2048A000C4104846C0B2205C0143A5F8C410B5F8C4000002A5F8C400B5F8C4104846C0B29E
:2048C000204440780143A5F8C41019F102090020A5F8C600B5F8C6104846C0B2205C01432C
:2048E000A5F8C610B5F8C6000002A5F8C600B5F8C6104846C0B2204440780143A5F8C61017
:2049000019F102090020A5F8C800B5F8C8104846C0B2205C0143A5F8C810B5F8C8000002CC
:20492000A5F8C800B5F8C8104846C0B2204440780143A5F8C81019F102090020A5F8CA001C
:20494000B5F8CA104846C0B2205C0143A5F8CA10B5F8CA000002A5F8CA00B5F8CA104846A4
:20496000C0B2204440780143A5F8CA1019F102090020A5F8CC00B5F8CC104846C0B2205C4B
:204980000143A5F8CC10B5F8CC000002A5F8CC00B5F8CC104846C0B2204440780143A5F8F0
:2049A000CC1019F1020940E03000C0B204283CD10020A5F8CE00B5F8CE104846C0B2205C79
:2049C0000143A5F8CE10B5F8CE000002A5F8CE00B5F8CE104846C0B2204440780143A5F8A8
:2049E000CE1019F102094846C0B2205AA5F8D00019F102090020A5F8D200B5F8D21048461C
:204A0000C0B2205C0143A5F8D210B5F8D2000002A5F8D200B5F8D2104846C0B2204440784A
:204A20000143A5F8D21019F10209BDE8F08730B4002513E050F8042BD30744BFA9F1010394
:204A40009A18091F042942F8045BFAD213468C0744BF15809B1CC90748BF1D7050F8041BE4
:204A60000029E7D130BC704770B403000022002400264FF6FF7000258D4214D25A5D50404A
:204A800000221600082E0CD2C20706D580B2020048F2084090EA520001E080B24008761CB7
:204AA000F0E76D1CE8E780B2C04380B270BC70472DE9F04104000D005FF000080026002781
:204AC000002C24D0200004F04FF801004FF6FE7001400020060030000A0080B292B29042BE
:204AE00010D20D48320092B2A25C825C120133009BB223445B78C05C024317002F706D1CC0
:204B0000B61CE8E788461FFA88F85FEA5808404680B2BDE8F08100001CA6000862F30F22C6
:204B200062F31F42401810F0030308D0C91A1FD3DB0748BF00F8012D28BF20F8022D130064
:204B400030B414461546103928BF20E93C00FAD8490728BF20E90C0048BF40F8042D890030
:204B600028BF20F8022D48BF00F8012D30BC7047C91818BF00F8012DCB0728BF00F8012D7A
:024B800070477C
:20500000534D353030322032333036303230312047333246333033000000000000000000D3
:125020000000000000000000000000000000000000007E
:205034004FF4C0414843401C0100481E0029FBD170472DE9F0410600EC24DFF894590120DC
:205054003100C9B2614368543000C0B260432844DFF88019C0F8E8103000C0B260432844AE
:20507400FFF7ADFA4FF48277DFF86C8900203100C9B2794308F801003000C0B2784340440D
:2050940001F044FD9020DFF854193200D2B242430A443300DBB207FB03F708EB070393679A
:2050B4003200D2B242430A443300DBB204FB03F405EB040353673200D2B242430A444FF420
:2050D400C873A2F87C303200D2B242430A444FF4FA63C2F8843000223300DBB200FB03F0D4
:2050F4000A54BDE8F0812DE9F84300260027DFF8F04822002021002001F0D7FE0500280005
:20511400C0B200280BD000265FF000081C212000FFF7A0FCE169884201D00022150022005C
:2051340020214FF4807001F0C0FE06003000C0B200280BD000275FF000081C212000FFF7BC
:2051540089FCE169884201D00022160056EA0500C0B2002824D120275FF00008A1464246B8
:2051740039004846FFF7D0FC5020A0801E20E080602020815A20A0810A2060814FF41670D4
:2051940020824FF43470E0814FF47A70A08240F2B22060824FF42F712183E08200F01FF8EC
:2051B40001F0B6FF45F25550DFF838180A88824206D18A88DFF830381B789BB29A4206D022
:2051D4000880DFF824080078888002F015F802F032F8DFF8180802F0F0F8BDE8F18370B586
:2051F4000024DFF8FC670020F0611E213000FFF731FCF06132002021002001F01DFF050044
:20521400320020214FF4807001F016FFC0B270BD1CB5042100226C462000FFF775FC0420BA
:205234008DF8030003208DF80200DFF8C4078188ADF800106946006802F0FAF813BDF8B550
:2052540000240025002600273000C0B20A2817DA0120FFF7E5FE0021DFF8940702689268EE
:20527400808802405208150028002200C0B2D2B2904203D02C0000200600E5E7761CE3E702
:205294002000C0B2F2BD1CB5042100226C462000FFF73AFC10208DF8030003208DF8020041
:2052B400DFF85047A088ADF800006946206802F0BFF8A08821684861DFF83C47A088ADF83E
:2052D40000006946206802F0B3F8A08821684861DFF82847A088ADF800006946206802F050
:2052F400A7F8A08821684861DFF81447A088ADF800006946206802F09BF8A088216848618C
:20531400DFF80047A088ADF800006946206802F08FF8A08821684861DFF8EC46A088ADF8AE
:2053340000006946206802F083F8A08821684861DFF8D846A088ADF800006946206802F070
:2053540077F8A08821684861DFF8C446A088ADF800006946206802F06BF8A08821684861DC
:20537400DFF8B046A088ADF800006946206802F05FF8A08821684861DFF89C46A088ADF81F
:2053940000006946206802F053F8A0882168486113BD1CB5042100226C462000FFF7B4FBCC
:2053B40003208DF8020004208DF80300DFF86C068188ADF800106946006802F039F8DFF86B
:2053D40060068188ADF800106946006802F030F8DFF850068188ADF800106946006802F070
:2053F40027F8DFF844068188ADF800106946006802F01EF8DFF834068188ADF800106946FE
:20541400006802F015F8DFF828068188ADF800106946006802F00CF8DFF818068188ADF89E
:2054340000106946006802F003F8DFF80C068188ADF800106946006801F0FAFF13BD10B408
:205454000200D2B2002A4FD1DFF89C350A00D2B29208D2B25C8862F308245C800A00D2B245
:205474005208D2B25C8862F349245C800A00D2B25C8862F38A245C805A88C2F3002292B26A
:20549400002A05D0DFF87C2594881268146104E0DFF870259488126854615A88C2F34022E2
:2054B40092B2002A05D0DFF8602594881268146104E0DFF854259488126854615A88C2F318
:2054D400802292B2002A05D0DFF8402593881268136104E0DFF83425938812685361DFF85A
:2054F400FC2482F87E10F1E00200D2B2012A4FD1DFF8F4340A00D2B29208D2B25C8862F3EA
:20551400CB245C800A00D2B25208D2B25C8862F30C345C800A00D2B25C8862F34D345C80C7
:205534005A88C2F3C02292B2002A05D0DFF8E02494881268146104E0DFF8D424948812686C
:2055540054615A88C2F3003292B2002A05D0DFF8C42494881268146104E0DFF8B8249488F9
:20557400126854615A88C2F3403292B2002A05D0DFF8A42493881268136104E0DFF898247D
:20559400938812685361DFF8542482F80E119DE00200D2B2022A40F09980DFF84C340A00ED
:2055B400D2B29208D2B25C8862F308245C800A00D2B25208D2B25C8862F349245C800A00FC
:2055D400D2B25C8862F38A245C800A00D2B29208D2B25C8862F3CB245C800A00D2B25208D8
:2055F400D2B25C8862F30C345C800A00D2B25C8862F34D345C805A88C2F3002292B2002A73
:2056140005D0DFF8002494881268146104E0DFF8F4239488126854615A88C2F3402292B241
:20563400002A05D0DFF8E02394881268146104E0DFF8D4239488126854615A88C2F380223C
:2056540092B2002A05D0DFF8C42394881268146104E0DFF8B8239488126854615A88C2F3B2
:20567400C02292B2002A05D0DFF8A42394881268146104E0DFF898239488126854615A88A5
:20569400C2F3003292B2002A05D0DFF8882394881268146104E0DFF87C239488126854619A
:2056B4005A88C2F3403292B2002A05D0DFF8682393881268136104E0DFF85C239388126850
:2056D4005361C64A82F87E1082F80E1110BC704710B40A00D2B2002A14D1C34A0300DBB2D0
:2056F400548863F3861454800200D2B2002A04D0C04A93881268136103E0BE4A93881268DF
:20571400536117E00A00D2B2012A13D1B64A0300DBB2548863F3C71454800200D2B2002A0C
:2057340004D0B54A93881268136103E0B24A93881268536110BC704710B40A00D2B2002A52
:2057540014D1A94A0300DBB2548863F3CF3454800200D2B2002A04D0A84A93881268136145
:2057740003E0A64A93881268536117E00A00D2B2012A13D19C4A0300DBB2548863F38E34FB
:2057940054800200D2B2002A04D09D4A93881268136103E09A4A93881268536110BC70471A
:2057B4000A00D2B2002A04D1008880B2C00BC0B204E0008880B2800B10F0010070470A0066
:2057D400D2B2002A2DD1954A13689B689288134204D0027852F00102027003E0027812F0D9
:2057F400FE020270904A13689B689288134204D0027852F00202027003E0027812F0FD02F8
:205814000270874A13689B689288134204D0027852F00402027035E0027812F0FB0202703C
:2058340030E00A00D2B2012A2CD1804A13689B689288134204D0027852F00102027003E0EF
:20585400027812F0FE0202707B4A13689B689288134204D0027852F00202027003E0027831
:2058740012F0FD020270724A13689B689288134204D0027852F00402027003E0027812F091
:20589400FB0202707047F0B50300002000225FF0000C5FF0000E0024D3F803509E886E4016
:2058B40000273A00D2B2032A36DA0122BA401400320092B2224227D03A00D2B29A5C521C8E
:2058D400BC465FFA8CFC03F80C203A00D2B29A5C0B2A1FDB9A88A2439A80B3F804C014EA39
:2058F400050252EA0C0CA3F804C00A78A2430A7091F800C014EA050252EA0C0C81F800C01E
:20591400220092B2104305E00022BC465FFA8CFC03F80C207F1CC4E7D880F0BD2DE9F84F01
:2059340004000D0016005FF001085FF0000941F6822706EB070A4A4641465046FFF7E4F81B
:20595400002085F88C0041F68420345495F8700041F686217054286E012804DB286E41F69D
:20597400852170540BE041F6852180207054725C286E72EA00027254705C401C70545FF0BA
:205994004C08A86FB830009041F6882006EB000942460099484601F007FE5FF01809686F4B
:2059B40010F1BC0A41F6D42006EB000B4A465146584601F0F9FDDFF8A40B0068C5F8880006
:2059D40006EB0701300000F039F8BDE8F18F00007C230020BC260020742100205425002035
:2059F400B4260020F8260020D4260020E8F7FF1F5CA9000864A900086CA9000874A90008E0
:205A14007CA9000884A900088CA9000894A900089CA90008A4A90008ACA90008B4A900082A
:205A3400C4A90008D4A90008E4A90008BCA90008CCA90008DCA90008ECA900082DE9F04168
:205A540004000D006A262F0061786A20414304EB010010F1020832003900404601F0A4FDFD
:205A74006078401C60706078402801D10020607060782178884207D12078401C20702078DD
:205A9400402801D100202070BDE8F0812DE9F34F81B00500160000240020ADF802005FF014
:205AB400000C00220023687840302978411A402091FBF0F700FB17173900C9B26A20414377
:205AD40040F20120814201D3042007003900C9B26A204143C91CADF800107E20210089B247
:205AF4007054641C5520210089B27054641C0020210089B27054641CBDF80800210089B260
:205B14007054641CBDF8080080B2000A210089B27054641C0020210089B27054641C0020B4
:205B3400210089B27054641C1F20210089B27054641C3720210089B27054641C002021009A
:205B540089B27054641CBDF80000210089B27054641CBDF8000080B2000A210089B270544C
:205B7400641C200080B23754641C5FF0000840463900C0B2C9B288421DD25FF06A09297815
:205B94006A20414305EB010010F1020A200080B206EB000B4A465146584601F005FD6A3441
:205BB4002878401C28702878402801D10020287018F10108DBE70020210089B27054641C17
:205BD4000020210089B27054641C210089B2891EB01CFEF73FFF0100200080B23154641C97
:205BF400080080B2000A220092B2B054641C200080B2BDE8FE8F2DE9F14F88B00021002010
:205C140000220023089CB4F80540ADF80C40BDF80C404FF6FF75AC4209D0BDF80C00DFF88C
:205C3400984D2478A4B2A04201D0002017E30898C479089880780838ADF80A00089810F1A7
:205C54000905DFF8686B0020F0802000C0B2042816D0362800F09782372872D038287CD090
:205C7400392800F0DB803A2800F016813B2800F0C2813C2823D03D2853D0F7280FD0EDE239
:205C940016F108000090DFF8300D03789BB22200D2B20021002001F0DAFCF080DEE216F190
:205CB40008000090DFF8100D03789BB22200D2B23221DFF8080D01F0CAFCF080CEE2BDF80B
:205CD4000A0018282CD10421002204AF3800FEF71BFFDFF8147D18223900280001F0C4FD73
:205CF400002809D05FF01808A94642464946380001F05AFCFFF773FA04A9DFF8C00CC01D0B
:205D1400FEF7CCFE16F108000090DFF8AC0C03789BB22200D2B2042104A801F098FCF0804E
:205D34009CE216F108000090DFF88C0C03789BB22200D2B21821DFF8B00C01F088FCF080A4
:205D54008CE216F10802DFF8700C017889B2DFF89C0CFFF79BFEF08080E2BDF80A000228E0
:205D74005BD100202F783900C9B2022955DA5FF09008DFF87C9C3800C0B208FB00F019F88A
:205D94000000022807D03800C0B208FB00F019F80000012841D16878800727D53800C0B2F8
:205DB40008FB00F04844012180F868103800C0B208FB00F04844DFF8A4170968C1663900B2
:205DD400C9B20120FFF784FC3800C0B208FB00F019F80000012809D13900C9B23800C0B28E
:205DF40008FB00F809EB080000F0ADFA3900C9B2687810F00100FFF79FFCDFF8BC0B418874
:205E1400818016F10801009103789BB22200D2B20021002001F01BFCF0801FE2BDF80A00E5
:205E3400022838D100202F783900C9B2022932DA9020DFF8BC2B3900C9B24143515C0229EB
:205E540005D03900C9B24143515C012923D16978012909D13900C9B23B00DBB200FB03F007
:205E7400104400F0FFF908E03900C9B23B00DBB200FB03F0104400F066FA16F1080000903D
:205E9400DFF8340B03789BB22200D2B20021002001F0DDFBF080E1E1BDF80A00072840F010
:205EB400A9802F78022100220DF108084046FEF72BFE00208DF808000DF10808032088F8A9
:205ED40001003800C0B2022880F286805FF09009DFF81CAB3800C0B209FB00F05044806FBA
:205EF40090F8B800C00768D4DFF8000B002101700021417006200690681C0590DFF8F4BAAB
:205F1400069A0599584601F04FFB3800C0B209FB00F0504401214170DFF840063900C9B280
:205F340009FB01F1514402684A603900C9B209FB01F1514400220A7203213A00D2B209FBEB
:205F540002F20AF802103900C9B209FB01F15144012281F868203900C9B209FB01F1514483
:205F74000268CA663900C9B209FB01F151443222A1F87C203900C9B209FB01F90AEB0901FA
:205F94000068C1F880003900C9B20120FFF7A0FB01208DF80800FF2088F8010016F1080089
:205FB4000090DFF8140A03789BB22200D2B2022102A801F04CFBF0801CE016F108000090CA
:205FD400DFF8F40903789BB22200D2B2022102A801F03DFBF0800DE016F108000090DFF8A2
:205FF400D80903789BB22200D2B2022102A801F02EFBF08032E1BDF80A00072840F0C28074
:2060140095F80090022100220DF106073800FEF77BFD00208DF806000DF106070320787099
:2060340095F800804046C0B2022880F29C805FF09009DFF8BCA94046C0B209FB00F05044EB
:20605400806F90F8B800C0077DD50622691C4046C0B209FB00F05044806FBE3001F004FCE9
:20607400002807D00622691CDFF88C0901F0FCFB002868D1DFF874090021017000214170F3
:2060940006200690681C0590DFF870B9069A0599584601F089FA4046C0B209FB00F0504447
:2060B40001214172DFF8B4044146C9B209FB01F151440268CA604146C9B209FB01F15144BA
:2060D40000220A7404214246D2B209FB02F20AF802104146C9B209FB01F15144012281F8A6
:2060F40068204146C9B209FB01F151440268CA664146C9B209FB01F151443222A1F87C20C7
:206114004146C9B209FB01F90AEB09010068C1F880004146C9B20120FFF7DAFA01208DF838
:206134000600FF20787016F108000090DFF8880803789BB22200D2B202210DF1060001F0B2
:2061540086FAF0801EE016F108000090DFF8680803789BB22200D2B202210DF1060001F0D1
:2061740076FAF0800EE016F108000090DFF8480803789BB22200D2B202210DF1060001F0F1
:2061940066FAF0806AE0BDF80A00082865D15FF000082F78012100220DF104094846FEF7DC
:2061B400B3FC03208DF804003800C0B2022854DA5FF09008DFF838983800C0B208FB00F043
:2061D4004844806F90F8B800C00738D50622691C3800C0B208FB00F04844806FBE3001F078
:2061F40043FB002807D00622691CDFF80C0801F03BFB002823D1E879DFF804183A00D2B261
:20621400885400208DF80400FEF7E9FF3900C9B23800C0B208FB00F809EB080000F019F9B1
:2062340016F108000090DFF8900703789BB22200D2B2012101A801F00AFAF0800DE016F1AB
:2062540008000090DFF8700703789BB22200D2B2012101A801F0FBF9F080FFE7F08809B09F
:20627400BDE8F08FF8B504000D00A66F676F0120307096F8B80050F0200086F8B80096F812
:20629400B80010F0BF0086F8B800300000F03EFC0820387097F8BC0050F0200087F8BC002D
:2062B40096F8C600A7F8E4003800FEF788F9012020704FF4C870A4F87C00012084F88C00D8
:2062D4004FF4FA60C4F88400F1BD70B504000D00160002202070200000F018FC94F8C600AB
:2062F400DFF81C17098980B2884205D394F8B80050F0400084F8B800022028702800FEF74B
:206314005EF970BD70B504000D00160001202070200000F0FBFB94F8C600DFF8E41609892D
:2063340080B2884205D394F8B80050F0400084F8B8001020287094F8C600A5F8E4002800BA
:20635400FEF73DF970BDF8B504000D00A66F676F96F8B80010F0DF0086F8B80096F8C60079
:20637400642807D0DFF89806008996F8C61089B2884205D296F8B80050F0400086F8B8006C
:206394000420387097F8BC0010F0DF0087F8BC003800FEF714F9022020704FF47A60A4F813
:2063B4007C00012084F88C004FF4FA60C4F88400F1BD2DE9FC4104000D00160002210022DA
:2063D40001AF3800FEF7A0FB8DF804508DF80560DFF8D87317F10808CDF80080DFF8D8053B
:2063F40003789BB22200D2B2022101A801F02FF9F88001203871DFF80C0600683860F9888A
:20641400404601F067FBBDE8F38170B504000D00160000202070200000F078FB0820287037
:206434000020A5F8E4002800FEF7C9F870BD70B504000D00160000202070200000F066FB2F
:20645400042028700020A5F8E4002800FEF7B7F870BD70B504000D000021606F90F8BC0068
:20647400C00701D406262CE0A06F90F8B800C00701D4002625E0A06F90F8B800000604D4F1
:20649400606F90F8BC00000601D5072619E0DFF870058288A36F93F8C6309BB29A420FD2E0
:2064B4002A00D2B2805C002801D0052609E0A06F90F8B800400601D5022602E0012600E0B5
:2064D4000426300094F87E10C0B2884205D03100C9B22800C0B2FEF7B2FF70BD38B5040019
:2064F4000D00606F90F8BC00C00730D5A06F90F8B800C00714D5A06F90F8C600DFF8001554
:20651400098980B2884205D32900C9B22000FFF71AFF21E02900C9B22000FFF7A3FE1BE0D7
:20653400606FD0F8E00010F57A60DFF8D8140968884205D22900C9B22000FFF704FF0BE074
:206554002A00D2B2616FA06FFFF75FFF04E02900C9B22000FFF7F7FE31BD0000102700206E
:2065740038B504000D00A06F90F8B80000060BD4606F90F8BC0010F08100012804D1A06F34
:2065940090F8B800C00705D42900C9B22000FFF7DAFE10E0A06F90F8B800400605D52900ED
:2065B400C9B22000FFF7CFFE05E02A00D2B2616FA06FFFF7A7FE31BD70B504000D00607860
:2065D400012833D194F8700010F00100002803D094F86800002817D06068C830DFF82414B0
:2065F400096888420AD2012200213A20FFF7E1FE2900C9B22000FFF7A6FECEE0FF220121AE
:206614003A20FFF7D6FEC8E0002201213A20FFF7D0FE02206070DFF8EC03006860602A002E
:20663400D2B2616FA06FFFF7F0FEB6E06078022840F0B38094F8700010F00100002816D0F9
:20665400A06F90F8B800C00705D5012202213A20FFF7AFFE04E0FF2202213A20FFF7A9FED4
:206674002A00D2B2616FA06FFFF7CFFE95E0A06F90F8B800C0074DD5DE4E06223100A06F75
:20669400BE3001F0F1F8002806D006223100DA4801F0EAF800280AD1002200213A20FFF73C
:2066B40088FE2900C9B22000FFF7DCFD75E0042202213A20FFF77DFE01F055FA4FF4FA7057
:2066D400FEF7AEFC01F04FFA4FF4FA70FEF7A8FC01F049FA4FF4FA70FEF7A2FC01F043FAE5
:2066F4004FF4FA70FEF79CFC01206070C54801686160012184F868100168E1663221A4F86F
:206714007C100068C4F880002900C9B20120FEF7DFFF42E0207A401C2072207A032832DA22
:20673400022202213A20FFF744FE01F01CFA4FF4FA70FEF775FC01F016FA4FF4FA70FEF7AF
:206754006FFC01F010FA4FF4FA70FEF769FC01F00AFA4FF4FA70FEF763FC01206070A948E0
:2067740001686160012184F868100168E1663221A4F87C100068C4F880002900C9B2012031
:20679400FEF7A6FF09E0022200213A20FFF711FE2900C9B22000FFF7D6FD9A480068C4F82B
:2067B4008800002084F88C0070BD0000041B002070B504000D00607A012831D194F8700072
:2067D40010F00100002803D094F86800002816D0E068C8308B49096888420AD20122002138
:2067F4003B20FFF7E6FD2900C9B22000FFF7ABFDDAE0FF2201213B20FFF7DBFDD4E00022F3
:2068140001213B20FFF7D5FD022060727D480068E0602A00D2B2616FA06FFFF708FEC3E092
:20683400607A022840F0C08094F8700010F00100002816D0A06F90F8B800C00705D5FF22B4
:2068540002213B20FFF7B5FD04E0012202213B20FFF7AFFD2A00D2B2616FA06FFFF7E7FD70
:20687400A2E0A06F90F8B800C00740F18780634E06223100A06FBE3000F0F6FF002806D04A
:20689400062231005C4800F0EFFF002843D1207C401C2074207C032832DA032202213B20CB
:2068B400FFF787FD01F05FF94FF4FA70FEF7B8FB01F059F94FF4FA70FEF7B2FB01F053F9DD
:2068D4004FF4FA70FEF7ACFB01F04DF94FF4FA70FEF7A6FB012060724A480168E160012190
:2068F40084F868100168E1663221A4F87C100068C4F880002900C9B20120FEF7E9FE53E0ED
:20691400022200213B20FFF754FD2900C9B22000FFF7A8FC48E0022202213B20FFF749FD18
:2069340001F021F94FF4FA70FEF77AFB01F01BF94FF4FA70FEF774FB01F015F94FF4FA705F
:20695400FEF76EFB01F00FF94FF4FA70FEF768FB012060722B480168E160012184F86810A1
:206974000168E1663221A4F87C100068C4F880002900C9B20120FEF7ABFE15E00022002199
:206994003B20FFF716FD2900C9B22000FFF7DBFC1B482900C9B2415C012905D100212A00FF
:2069B400D2B28154FEF71BFC16480068C4F88800002084F88C0070BDD4260020005000088D
:2069D40002001000C0B2002806D10F490868C06889880840C0B205E00C490868C068898882
:2069F4000840C0B270470000B62600201800002054250020DA260020F4A80008E02600205B
:206A1400B42600201027002064A900086CA900082DE9F84304004FF482752E000027DFF824
:206A340010842000C0B2684308EB00093A0031004846FEF769F84FF416512000C0B201F0F9
:206A54008FFC01212000C0B201F053FD20222000C0B26843404410F112012000C0B201F008
:206A74006CFD80222000C0B205FB00F508EB050010F134012000C0B201F0F2FDBDE8F183B7
:206A940038B5040000252000C0B200280FD1DFF8A4030168490849000160DFF89C03016871
:206AB400490849000160DFF89403050011E02000C0B201280DD1DFF8880301684908490065
:206AD4000160DFF880030168490849000160DE48050000212000C0B201F00BFD002240F258
:206AF4002441280001F0CFFB00228021280001F002FC00224021280001F0FDFB0021280083
:206B140001F0B2FB280001F0F1FA31BD002141700021C17000218170002101740021C160C3
:206B34000178002925D1C1784A1CC2700122C9B201440A71C1784A1CC2700222C9B20144C5
:206B54000A71C1784A1CC2700322C9B201440A71C1784A1CC2700722C9B201440A71C17807
:206B74004A1CC2700522C9B201440A71012141703BE00178022917D1C1784A1CC270032297
:206B9400C9B201440A71C1784A1CC2700722C9B201440A71C1784A1CC2700522C9B20144B9
:206BB4000A710121417020E0017801291DD1C1784A1CC2700422C9B201440A71C1784A1C11
:206BD400C2700322C9B201440A71C1784A1CC2700722C9B201440A71C1784A1CC2700522E2
:206BF400C9B201440A7101214170704770B40300002200240026002000258D4214D25A5D78
:206C1400504000221600082E0CD2C20706D580B202004AF2010090EA520001E080B2400848
:206C3400761CF0E76D1CE8E780B270BC70472DE9FE4F05000E001700984600240020ADF816
:206C540004005FF000097E20210089B26854641C0020210089B26854641C0020210089B25A
:206C74006854641C200080B22E54641CC2461FFA8AFA0097200080B205EB000B52460099B6
:206C9400584600F091FC18EB040414F1020B85F801B0584680B2000AA870210089B2280004
:206CB400FFF7A4FF0100200080B22954641C080080B2000A220092B2A854641C200080B25F
:206CD400BDE8FE8F2DE9F24F04001500002600275FF00008B4F88000310089B2891D884252
:206CF40038DB300080B2205C7E2831D1B4F801000700B4F88000390089B211FA86F1884247
:206D140026DB5FF000095FF0000A300080B22044390089B2084430F802BC390089B2891E26
:206D3400300080B22044FFF761FF5946020089B292B291420CD12900320092B22244D27804
:206D5400C9B2914204D100990E800121884601E0761CBFE74046C0B2BDE8F28F2DE9F84F51
:206D740004000D0016000127002094F803804146C9B2012908D0022913D0032926D005291F
:206D940046D0072938D04FE0A088A880E0886880A888002804D16888002801D10020070084
:206DB40042E05FF0060914F1040A15F1060B4A465146584600F0F8FB06222449A81D00F023
:206DD40053FD002801D1002007002DE0A088A881A079A873B4F807002882607AA874608960
:206DF400A882A089E882E0892883208A6883A07C2877E07C687717E05FF0280914F1040A99
:206E140015F1240B4A465146584600F0CDFB0BE05FF0050914F1040A15F11E0B4A465146FB
:206E3400584600F0C1FBFFE73800C0B2BDE8F28F74210020300002401C0002400048004031
:206E54003004024058040240004C0040F4A8000810B40100002201204B78032B04D08B780A
:206E74000B441B79042B0ED18B785B1C8B7000230B748B78CC78A34202D206234B7011E021
:206E940000234B700EE00B7C5B1C0B740B7C032B02DA06234B7005E000234B7000230B74BB
:206EB40000231800C0B210BC70472DE9F04104000D0016005FF001080027280080B200281F
:206ED40060D001F061FD002801D1002080464046C0B2002808D0A02001F0EBFD01F0C8FDF8
:206EF400002801D1002080464046C0B2002808D0200080B2000AC0B201F0DBFD01F0B8FD69
:206F140080464046C0B2002806D02000C0B201F0D0FD01F0ADFD80464046C0B2002805D0FB
:206F340001F032FD002801D1002080464046C0B2002808D0A12001F0BCFD01F099FD00282B
:206F540001D1002080466D1E4046C0B2002817D0002007003800290080B289B2884208D23A
:206F740001F0CCFD390089B2705401F051FD7F1CF0E701F0C3FD390089B2705401F060FD23
:206F940001F02EFD4046C0B2BDE8F0812DE9F04104000D00160000275FF00108280080B26C
:206FB400002842D001F0F0FC002801D1002080464046C0B2002808D0A02001F07AFD01F0B5
:206FD40057FD002801D1002080464046C0B2002808D0200080B2000AC0B201F06AFD01F05A
:206FF40047FD80464046C0B2002806D02000C0B201F05FFD01F03CFD80460020070038004F
:20701400290080B289B288420DD24046C0B2002807D0380080B2305C01F04BFD01F028FDE1
:2070340080467F1CEBE701F0DBFC052001F09CFC4046C0B2BDE8F0812DE9F04704000D0027
:20705400160000275FF000085FF0000A200010F01F0F1BD014F01F00D0F1200007002800C3
:20707400390080B289B2884200D22F00404680B206EB0002390089B218EB040080B2FFF73D
:2070940085FF8146ED1B17EB080801E05FF001094846C0B200281FD0280080B200281BD0B9
:2070B400202007002800390080B289B2884200D22F00404680B206EB0002390089B218EBBA
:2070D400040080B2FFF762FF8146ED1B17EB08084846C0B20028DFD14846C0B2BDE8F0873A
:2070F40030B40EE00268436802440830DC0744BFA9F10104E31852F8045B43F8045B091F2C
:20711400F9D150F8041B0029ECD130BC704700002DE9F8435FF00008002441F6F875BA4E29
:20713400320008212800FFF7C0FE07003800C0B2002810D05FF000085FF000090621300045
:20715400FDF788FCF18802000B0092B29BB29A4201D000221700320008214FF4F050FFF7D2
:20717400A4FE80464046C0B200280FD000245FF0000906213000FDF76DFCF18802000B00DE
:2071940092B29BB29A4201D00022904658EA0700C0B2002807D10120B0804AF6AA203080DF
:2071B40000F02AF826E03800C0B201280FD14046C0B200280BD1320008212800FFF775FE08
:2071D400320008214FF4F050FFF736FF12E03800C0B200280ED14046C0B201280AD13200C1
:2071F40008214FF4F050FFF760FE320008212800FFF722FFBDE8F18338B50024824D0020C8
:20721400E88006212800FDF725FCE8802A00082141F6F870FFF710FF012809D12A000821D9
:207234004FF4F050FFF708FF012801D1012004002000C0B232BD2DE9F04100270026734CC6
:20725400220040214FF49050FFF72FFE05002800C0B200280FD000275FF000083C212000B0
:20727400FDF7F8FBE16B02000B0092B29BB29A4201D000221500220040214FF49450FFF7A5
:2072940014FE07003800C0B200280FD000265FF000083C212000FDF7DDFBE16B02000B00F1
:2072B40092B29BB29A4201D00022170057EA0500C0B200280AD14026DFF8548132004146BD
:2072D400200000F071F900F02CF828E02800C0B2012810D13800C0B200280CD1220040212E
:2072F4004FF49050FFF7E1FD220040214FF49450FFF7A2FE13E02800C0B200280FD1380076
:20731400C0B201280BD1220040214FF49450FFF7CCFD220040214FF49050FFF78DFEBDE8AD
:20733400F08170B50024394E0020F0633C213000FDF790FBF063320040214FF49050FFF77A
:207354007BFE0500320040214FF49450FFF774FEC0B270BD2DE9F043060014001D00370023
:207374005FF00008B8F5047F24D297EA17492000290018F03F0201F009FC90EA0900254922
:20739400C7F34002C7F3402312EB4302C7F3005312EB8302C7F3806312EBC3023B00DB0F6B
:2073B40012EB031211414840C00790EA570718F10108D7E73800BDE8F0832DE9F0478246F9
:2073D400DFF8548041F68319144E42F21207144C42F2160542464B46DAF80000FFF7BAFF23
:2073F4001049086032003B00DAF80400FFF7B2FF0D49086022002B00DAF80800FFF7AAFF4A
:207414000A490860BDE8F087F826002074260020008000082E745C3A1655180817310410E2
:207434001731291104270020082700200C270020F0B500220023002400250026002791F8C0
:2074540003C01CF00F0C91F803E05FEACE6E02D58A7852EA0C0C0A7812062AD002681600FC
:2074740000221400082C23D25FF0010E1EFA04F215000A882A401300AB4217D1A20015007D
:207494000F22AA401700BE431CFA05F21643CA78282A04D11EFA04FEC0F814E006E0CA78E8
:2074B400482A03D11EFA04FEC0F810E0641CD9E706600A88B2F5807F2EDB426816000022E7
:2074D4001400082C27D25FF0010E14F108021EFA02F215000A882A401300AB4219D1A20041
:2074F40015000F22AA401700BE431CFA05F21643CA78282A04D114F108021EFA02F24261A3
:20751400CA78482A05D114F108021EFA02FEC0F810E0641CD5E74660F0BDF0B40022002386
:2075340000250027002802D51D4C246801E01D4C2468C0F3034586B210F4401CBCF5401F7E
:2075540007D134F07064174A176837F07067176011E0C20206D50322AA4013009C4354F01D
:20757400706408E00200520DD2B2120116FA02F2944354F070640A00D2B2002A06D00200C0
:20759400520DD2B2120116FA02F21443002802D5034A146001E0034A1460F0BC70470000C1
:2075B4001C0001400400014062B38B0708D0521E11F8013B00F8013B00F024808B07F6D1C0
:2075D400830740F0208000BF103A07D330B4B1E83810103AA0E83810F9D230BC530724BF87
:2075F400B1E80810A0E8081044BF51F8043B40F8043BD20724BF31F8022B20F8022B44BFCA
:207614000B7803707047121F17D35B0009D151F8043B20F8023B1B0C121F20F8023BF6D207
:207634000BE051F8043B00F8013B1B0A20F8023B1B0C121F00F8013BF3D238BF121D521E2E
:2076540024BF11F8013B00F8013BF8D870472DE9FE4F04000D0016001F00DDF830805FF0B6
:2076740000090020ADF804007E204946C9B208F8010019F1010955204946C9B208F80100E7
:2076940019F1010900204946C9B208F8010019F101094846C0B208F8007019F101093800C7
:2076B40080B2000A4946C9B208F8010019F1010900204946C9B208F8010019F101090020FC
:2076D4004946C9B208F8010019F101091F204946C9B208F8010019F101094846C0B208F819
:2076F400006019F1010900204946C9B208F8010019F10109AA465FFA8AFA00944846C0B262
:2077140008EB000B524600995846FFF74DFF15EB090900204946C9B208F8010019F10109F5
:2077340000204946C9B208F8010019F10109B9F1010088F802004946C9B2891E18F102000D
:20775400FDF788F901004846C0B208F8001019F10109080080B2000A4A46D2B208F8020021
:2077740019F101095FFA89F9484680B2BDE8FE8F2DE9F24F040015000026002760880B283C
:207794006EDB6088390089B20B31884268DB380080B2204400797E2860D1380080B22044FB
:2077B400407955285AD100215FF000085FF00009380080B220448079002807D0380080B254
:2077D400204490F806A01AF1030A0EE0380080B2204490F80EA05FEA0A2A380080B22044AE
:2077F400407B50EA0A0A1AF10D0A504680B20B2834DB0020390089B22144B1F809B0594646
:2078140089B24FF6FF72914205D05846290080B289B2884222D1514689B2091F380080B266
:207834002044801DFDF716F9514689B211FA87F12144CA781202514689B211FA87F1214466
:2078540089780A430100130089B29BB2994204D10021009B1F8001231E0001E07F1C90E7EA
:207874003000C0B2BDE8F28F0300002013F0030F09D0521E22BF13F8010B11F801CBB0EB43
:207894000C00F3D0704711F0030F14D1121F22BF53F8040B51F804CB6045F7D0121D0AD25B
:2078B40000BA9CFA8CFCB0EB0C0038BF6FF0000088BF01207047521E22BF13F8010B11F84F
:2078D40001CBB0EB0C00F6D0521C08BF1046704730B585B00400042100226D462800FDF7E5
:2078F40013F91021002201AD2800FDF70DF910208DF8030003208DF80200894DA888ADF838
:20791400000069462868FFF793FDA88829684861844D280000F0EAFB83488188ADF80010CD
:2079340003218DF8021018218DF8031069460068FFF77EFD7D488188ADF8001048218DF8AE
:20795400031069460068FFF773FD01940020ADF808000020ADF80A000020ADF80C00002061
:20797400ADF810000C20ADF80E0001A9280000F005FC0121280000F077FC012240F2244135
:20799400280000F080FC01228021280000F0B3FC01224021280000F0AEFC05B030BD38B5DF
:2079B4000400042100226D462800FDF7ADF826208DF8000003208DF8010002208DF80200D7
:2079D4008DF80340684601F0F6F831BD70B58CB004000D00564E300001F044F955480190AE
:2079F400029410200390049500200590802006900020079000200890002009904FF440509B
:207A14000A9000200B9001A9300001F0A3F901220221300001F0CAF900F070F811208DF85E
:207A3400000002208DF8010000208DF8020001208DF80300684601F0BEF80CB070BD70B5D7
:207A54008CB004000D00042100226E463000FDF75BF82C21002201AE3000FDF755F8364E40
:207A7400300001F0FFF833480190029400200390049500200590802006900020079000202A
:207A94000890002009904FF440500A9000200B9001A9300001F05EF901220221300001F0D0
:207AB40085F95FF4001025490860306840084000306010208DF8000002208DF801000020CE
:207AD4008DF8020001208DF80300684601F073F80CB070BD124A9388126813615FF0007249
:207AF400164B1A60164A10600A0092B2154B1A600F4A136853F00103136070475FF000709B
:207B14000E4908600A480168490849000160054800884006FBD502488188006841617047DD
:207B340014AA00080044004004AA00080CAA000880000240044400406C0002400400024035
:207B54008C00024084000240010089B20B4A116070470100C9B20A4A11607047010089B290
:207B7400084A116070474AF6AA200449086070474CF6CC40014908607047000000300040DA
:207B9400043000400830004078B585B004000D00042100226E463000FCF7B6FF102100224C
:207BB40001AE3000FCF7B0FF10208DF8030003208DF802002000C0B2002854D1DFF8EC64C8
:207BD400B088ADF8000069463068FFF731FCB08831684861DFF8D864300000F087FADFF845
:207BF400D4048188ADF8001003218DF8021018218DF8031069460068FFF71AFCDFF8B80499
:207C14008188ADF8001048218DF8031069460068FFF70EFC01950020ADF808000020ADF852
:207C34000A000020ADF80C000020ADF810000C20ADF80E0001A9300000F0A0FA01213000EB
:207C540000F012FB012240F22441300000F01BFB01228021300000F04EFB01224021300042
:207C740000F049FB40E0DFF85464B088ADF8000069463068FFF7DCFBB0883168486118206A
:207C94008DF80300DFF838048188ADF8001069460068FFF7CDFB48208DF80300DFF82404B3
:207CB4008188ADF8001069460068FFF7C1FBDFF81864300000F01AFA01950020ADF808003F
:207CD4000020ADF80A000020ADF80C000020ADF810000C20ADF80E0001A9300000F04EFA2A
:207CF4000121300000F0C0FA06B070BD7CB504000D00042100226E463000FCF705FF20000D
:207D1400C0B2002803D125208DF8000002E035208DF8000003208DF8010002208DF8020009
:207D34008DF80350684600F046FF73BDF8B504000D0016002000C0B2012814D1DFF88873FE
:207D540040F26551380000F0F8FA2A00D2B240F22551380000F097FA3200D2B240F226618F
:207D7400380000F090FAF1BDF8B58CB004000D0016002000C0B200284CD1042100226F46AC
:207D94003800FCF7C1FE2C21002201AF3800FCF7BBFECE4F380000F065FFCD4801900295FC
:207DB40010200390049600200590802006900020079000200890002009904FF440500A90D2
:207DD40000200B9001A9380000F0C4FF01220221380000F0EBFF4FF40050BE490860386845
:207DF400400840003860B24800884006FBD5AF488188006841610E208DF8000002208DF853
:207E1400010000208DF8020001208DF80300684600F0D1FE0DB0F0BDF8B58CB004000D002C
:207E340016002000C0B2002844D1042100226F463800FCF769FE2C21002201AF3800FCF771
:207E540063FEA54F380000F00DFFA14801900295002003900496002005908020069000201C
:207E7400079000200890002009904FF440500A9000200B9001A9380000F06CFF012202213B
:207E9400380000F093FF5FF400309249086038684008400038600F208DF8000002208DF833
:207EB400010000208DF8020001208DF80300684600F081FE0DB0F0BD0200D2B2002A08D14D
:207ED4000A00D2B2824B1A80794A1288120608D4FAE70A00D2B2814B1A807B4A12881206FC
:207EF400FBD570474FF4C0414843401C0100481E0029FBD170472DE9F84304000D00160031
:207F140000272000C0B200281FD1DFF8A081B8F80400D8F8001008610120FFF7E3FF5FF03F
:207F34000009B14508D215F809102000C0B2FFF7C3FF19F10109F4E70120FFF7D3FFB8F85C
:207F54000400D8F8001048611FE0DFF87081B8F80400D8F8001008615FF00009B14508D294
:207F740015F809102000C0B2FFF7A6FF19F10109F4E70120FFF7B6FF534800884006FBD5A6
:207F9400B8F80400D8F800104861BDE8F18370B504000D0016002000C0B2002811D1434804
:207FB4008188006801614FF400504A4908604C4805604C4806604548016851F001010160BF
:207FD40009E02000C0B2012805D1320029002000C0B2FFF790FF70BD0100C9B200290CD1F2
:207FF4005FF400313B4A116080213F4A11603A490A6852F001020A6007E00100C9B2012927
:2080140003D12E498A8809684A6170470100C9B2002911D14FF400512E4A11602B490A6832
:20803400520852000A60224909884906FBD51F498A8809684A61FFE770470100C9B2002923
:2080540009D15FF40031234A116023490A68520852000A60FFE7704770B5040000252000D1
:20807400C0B200280DD1124E0721300000F04FF9002817D00721300000F057F901200500B7
:2080940010E02000C0B201280CD10F4E0F21300000F03DF9002805D00F21300000F045F9D6
:2080B400012005002800C0B270BD00003CA90008003801402CA9000834A9000854A9000892
:2080D40044A900084CA9000800500040440002400438014004000240580002400450004093
:2080F40050000240480002405C00024010B50400584884420AD101214FF4804000F0B2FFE2
:2081140000214FF4804000F0ADFF36E0524884420AD101215FF4003000F0B2FF00215FF480
:20813400003000F0ADFF28E04C4884420AD101215FF4802000F0A4FF00215FF4802000F076
:208154009FFF1AE0464884420AD101215FF4002000F096FF00215FF4002000F091FF0CE02A
:208174004048844209D101215FF4801000F088FF00215FF4801000F083FF10BD2DE9F84FA7
:2081940086B004000D00002600275FF000085FF000095FF0000AA8890028A346218A4CF600
:2081B400FF700140E8880143009100982082A1894EF6F3100140AA8828890243688902436C
:2081D400114300910098A081A18A4FF6FF400140A889014300910098A08201A800F0ACFEFA
:2081F4001C48834501D1049900E00399A089000407D5192000FB01F02A685200B0FBF2F2B3
:2082140006E0192000FB01F02A689200B0FBF2F26420B2FBF0F6360133001B09642000FB68
:208234001323A089000408D5D80032306427B0FBF7F010F00700064307E018013230642756
:20825400B0FBF7F010F00F000643268107B0BDE8F08F000000380140004400400048004019
:20827400004C0040005000400A00D2B2002A04D0828952F40052828104E083894DF6FF72F8
:208294001340838170472DE9F0410023002500275FF0000E0C0040F66A16A4B2B4428046D5
:2082B4000C00E4B26409E4B20E00B6B216F01F065FF0010C1CFA06FC012C02D118F10C08D3
:2082D40006E0022C02D118F1100801E018F114081300DBB2002B06D0D8F800305CEA03038F
:2082F400C8F8003005E0D8F8003033EA0C03C8F80030BDE8F0811300DBB2002B03D0838AB8
:208314000B43838202E0838A8B438382704702000023080080B2B0F5007F1088084201D047
:20833400012000E00020C0B270470A0092B292050A0092B2D2430280704770B400220024F4
:208354000B0040F66A159BB2AB420B009BB21B0A01259D402E00B6B2F643068070BC704757
:2083740078B585B004000D00042100226E463000FCF7CAFB1021002201AE3000FCF7C4FBAF
:2083940010208DF8030003208DF802002000C0B2002854D1DFF83065B088ADF80000694690
:2083B4003068FFF745F8B08831684861DFF81C653000FFF79BFEDFF818058188ADF800109B
:2083D40003218DF8021018218DF8031069460068FFF72EF8DFF8FC048188ADF800104821CC
:2083F4008DF8031069460068FFF722F801950020ADF808000020ADF80A000020ADF80C00A7
:208414000020ADF810000C20ADF80E0001A93000FFF7B4FE01213000FFF726FF012240F250
:2084340024413000FFF72FFF012280213000FFF762FF012240213000FFF75DFF57E02000C7
:20845400C0B2012853D1DFF89064B088ADF8000069463068FEF7ECFFB08831684861DFF829
:208474007C643000FFF742FEDFF874048188ADF8001003218DF8021018218DF8031069465A
:208494000068FEF7D5FFDFF85C048188ADF8001048218DF8031069460068FEF7C9FF019537
:2084B4000020ADF808000020ADF80A000020ADF80C000020ADF810000C20ADF80E0001A9DD
:2084D4003000FFF75BFE01213000FFF7CDFE012240F224413000FFF7D6FE0122802130004E
:2084F400FFF709FF012240213000FFF704FF06B070BD7CB504000D00042100226E4630006D
:20851400FCF702FB2000C0B2002803D127208DF8000006E02000C0B2012802D134208DF8B0
:20853400000003208DF8010002208DF802008DF80350684600F03FFB73BDF8B58CB0040008
:208554000D001600042100226F463800FCF7DCFA2C21002201AF3800FCF7D6FA2000C0B23B
:20857400002807D1DFF8800300F07CFBDFF87C0301900AE02000C0B2012806D1DFF8700379
:2085940000F070FBDFF86C03019002951020039004960020059080200690002007900020DF
:2085B4000890002009904FF440500A9000200B902000C0B2002820D1DFF82C7301A938002B
:2085D40000F0C8FB01220221380000F0EFFB2020DFF8241308603868400840003860DFF82F
:2085F400EC0200884006FAD5DFF8DC028188006841610C208DF8000024E02000C0B20128A4
:2086140020D1DFF8EC7201A9380000F0A3FB01220221380000F0CAFBDFF8E002DFF8E012FB
:2086340008603868400840003860DFF8B00200884006FAD5DFF8A0028188006841613B20F1
:208654008DF8000002208DF8010000208DF8020001208DF80300684600F0ADFA0DB0F0BDDA
:20867400F8B58CB004000D001600042100226F463800FCF749FA2C21002201AF3800FCF722
:2086940043FA2000C0B2002806D1DFF8780200F0E9FA9648019008E02000C0B2012804D1ED
:2086B400994800F0DFFA9348019002950020039004960020059080200690002007900020EA
:2086D4000890002009904FF440500A9000200B902000C0B2002815D18A4F01A9380000F0C2
:2086F40039FB01220221380000F060FB4FF400708149086038684008400038600D208DF812
:20871400000017E02000C0B2012813D17E4F01A9380000F01FFB01220221380000F046FB47
:208734007A487749086038684008400038603A208DF8000002208DF8010000208DF802004D
:2087540001208DF80300684600F035FA0DB0F0BD10B40300DBB2002B10D15B4B9C881B6878
:208774001C612023644C2360694B1960694B1A605D4B1C6854F001041C6013E00300DBB223
:20879400012B0FD1544B9C881B681C615B4B5C4C2360614B1960614B1A60554B1C6854F072
:2087B40001041C6010BC70470100C9B200290CD14FF40071504A11608021594A1160514911
:2087D4000A6852F001020A600EE00100C9B201290AD14E494A4A11608021524A11604A4918
:2087F4000A6852F001020A6070470100C9B2002910D12021404A11603B490A685208520029
:208814000A60324909884906FBD52F498A8809684A6113E00100C9B201290FD13749384A8E
:20883400116033490A68520852000A602B4909884906FBD528498A8809684A617047010034
:20885400C9B2002909D14FF400712B4A11602D490A68520852000A600BE00100C9B201295D
:2088740007D12A49264A116027490A68520852000A60704770B5040000252000C0B2002801
:208894000DD1124E07213000FFF741FD002817D007213000FFF749FD0120050010E0200021
:2088B400C0B201280CD10D4E07213000FFF72FFD002805D007213000FFF737FD01200500B2
:2088D4002800C0B270BD00000CA9000800480040FCA8000804A9000824A90008004C0040B6
:2088F40014A900081CA900081C0002400448004058040240044C0040040002400000021062
:20891400040402403000024030040240000200102800024020000240640402405C040240E7
:2089340034000240340402401CB5042100226C462000FCF7E9F803208DF8020014208DF812
