:020000040800F2
:2040000020310020E9A20008E19C0008E39C0008E59C0008E79C0008E99C000800000000EF
:20402000000000000000000000000000EB9C0008ED9C000800000000EF9C0008F19C000838
:204040003DA4000841A4000845A4000849A400084DA4000851A4000855A4000859A40008A8
:204060005DA4000861A4000865A4000869A40008E19E0008B99E0008E79D0008BF9D00082E
:20408000399D00085D9D00086DA4000871A4000875A4000879A400087DA4000881A400086E
:2040A00085A4000889A400088DA4000891A4000895A4000899A400089DA40008A1A4000808
:2040C000A5A40008A9A40008ADA40008B1A40008B5A40008219E0008859D0008F19E00089B
:2040E000B9A40008BDA40008C1A40008C5A40008C9A40008CDA40008D1A40008D5A4000828
:20410000D9A40008DDA40008E1A40008E5A400085B9F00085F9E0008E9A40008EDA400083E
:20412000F1A40008F5A40008259F00084B9F00082DE9F8430600E8275FF00008E824DFF8E3
:2041400078563000C0B2604305EB000942463900484600F099FC3000C0B2002823D14FF47E
:2041600016513000C0B203F071FB01213000C0B203F01EFC20223000C0B26043284410F112
:2041800012013000C0B203F051FC80223000C0B204FB00F405EB040010F134013000C0B227
:2041A00003F09CFC10E04FF416513000C0B203F04DFB01213000C0B203F0FAFB002201210D
:2041C0003000C0B203F014FCBDE8F18338B504002000C0B200282AD1DFF8E0050168490805
:2041E00049000160DFF8D805016849084900016000212000C0B203F0DBFBDFF8C85500226B
:2042000040F22441280003F0A0FE00228021280003F0D3FE00224021280003F0CEFE002114
:20422000280003F083FE280003F0C2FD17E02000C0B2012813D100212000C0B203F0B8FB19
:20424000002200212000C0B203F0D2FBDFF878550021280003F06AFE280003F0A9FD31BDD2
:2042600070B403000022002600244FF6FF7000252A000E00F6B292B2B6B2B24218D22A003E
:2042800092B29A5C5040002214002200D2B2082A0CDAC20706D580B202004AF2010090EAD1
:2042A000520001E080B24008641CEEE76D1CDFE780B270BC70472DE9F04104000D0000261A
:2042C00000270020A178214491F8048001213200D2B2A954761C4146C9B2012938D10F2041
:2042E0003100C9B26854761C00203100C9B26854761C01203100C9B26854761C002031003E
:20430000C9B26854761C02203100C9B26854761CB4F8D60080B2000A3100C9B26854761C00
:20432000B4F8D6003100C9B26854761CB4F8D80080B2000A3100C9B26854761CB4F8D800C3
:204340003100C9B26854761C0F2084F8D40082E04046C0B202281CD14D203100C9B268549E
:20436000761C03203100C9B26854761C20203100C9B26854761C00203100C9B26854761C3A
:2043800008203100C9B26854761C4D2084F8D40061E04046C0B200281CD106203100C9B21E
:2043A0006854761C00203100C9B26854761C00203100C9B26854761C00203100C9B26854F3
:2043C000761CFF203100C9B26854761C062084F8D40040E04046C0B203281CD10620310035
:2043E000C9B26854761C00203100C9B26854761C00203100C9B26854761C00203100C9B2F4
:204400006854761C00203100C9B26854761C062084F8D4001FE04046C0B204281BD103208C
:204420003100C9B26854761C00203100C9B26854761C01203100C9B26854761C00203100FC
:20444000C9B26854761C03203100C9B26854761C032084F8D4003100C9B22800FFF700FF3A
:2044600001003000C0B22954761C080080B2000A3200D2B2A854761CF6B2300080B2BDE853
:20448000F0812DE9F34F81B0040015000026002700208DF80000B4F88000310089B2083146
:2044A00088426ADB300080B2204440782900C9B2884260D12800C0B20F2802D108200700FD
:2044C00013E02800C0B2062802D1082007000CE02800C0B24D2802D11520070005E0280008
:2044E000C0B2032801D10B200700B4F88000390089B211FA86F188423DDB5FF000085FF071
:2045000000095FF0000A0021300080B220443A0092B2104410F8020C01430902300080B2B9
:2045200020443A0092B2104410F8010C0143ADF80210300080B22044390089B2084430F887
:2045400002BC3800811EC9B2300080B22044FFF787FEBDF80210020092B2914205D05946B6
:20456000020089B292B2914205D102990E8001218DF8001001E0761C8DE79DF80000BDE810
:20458000FE8F10B40100002201204B78032B0ED18B785B1C8B7000230B748B78CC78A34273
:2045A00002D206234B7011E000234B700EE00B7C5B1C0B740B7C032B02DA06234B7005E0AF
:2045C00000234B7000230B7400231800C0B210BC7047002141700021C170002181700021D4
:2045E00001740021C1600178C90710D5C1784A1CC2700322C9B201440A71C1784A1CC270D4
:204600000222C9B201440A7101214170D3E00178090729D5002180F8D510D0F8E41090F86C
:20462000D52001EB82010989A0F8D810D0F8E41090F8D52001EB8201C988A0F8D6106349E1
:204640000968C0F8DC10C1784A1CC2700122C9B201440A71C1784A1CC2700022C9B2014463
:204660000A7101214170A6E00178C90640F1838090F8D510002945D15449D0F8DC2012F5D6
:20468000FA620B689A423DD2B0F8E0200B2A19DBB0F8E0205A2A15DA012280F8D520D0F81C
:2046A000E42090F8D53002EB83021289A0F8D820D0F8E42090F8D53002EB8302D288A0F80F
:2046C000D62014E0022280F8D520D0F8E42090F8D53002EB83021289A0F8D820D0F8E4209D
:2046E00090F8D53002EB8302D288A0F8D6200968C0F8DC10C1784A1CC2700122C9B201440A
:204700000A712EE090F8D51001292AD12F49D0F8DC2012F5FA620B689A4222D2B0F8E020F4
:204720005A2A1EDB022280F8D520D0F8E42090F8D53002EB83021289A0F8D820D0F8E420A9
:2047400090F8D53002EB8302D288A0F8D6200968C0F8DC10C1784A1CC2700122C9B20144A9
:204760000A71C1784A1CC2700422C9B201440A71012141701FE00178490709D5C1784A1C74
:20478000C2700322C9B201440A710121417012E0017889070FD5C1784A1CC2700222C9B265
:2047A00001440A71C1784A1CC2700422C9B201440A710121417070477C2300205800024024
:2047C000440002400038014000500040002700202DE9F04704000D0000205FF00309A97809
:2047E00029440E793100C9B2022940F0B18004274846C0B204EB000815F1BD0A3A004146DD
:20480000504602F04FFD19F104090020A5F8C200B5F8C2104846C0B2205C0143A5F8C21080
:20482000B5F8C2000002A5F8C200B5F8C2104846C0B2204440780143A5F8C21019F1020945
:204840000020A5F8C400B5F8C4104846C0B2205C0143A5F8C410B5F8C4000002A5F8C40051
:20486000B5F8C4104846C0B2204440780143A5F8C41019F102090020A5F8C600B5F8C610CB
:204880004846C0B2205C0143A5F8C610B5F8C6000002A5F8C600B5F8C6104846C0B2204426
:2048A00040780143A5F8C61019F102090020A5F8C800B5F8C8104846C0B2205C0143A5F80D
:2048C000C810B5F8C8000002A5F8C800B5F8C8104846C0B2204440780143A5F8C81019F1C0
:2048E00002090020A5F8CA00B5F8CA104846C0B2205C0143A5F8CA10B5F8CA000002A5F852
:20490000CA00B5F8CA104846C0B2204440780143A5F8CA1019F102090020A5F8CC00B5F824
:20492000CC104846C0B2205C0143A5F8CC10B5F8CC000002A5F8CC00B5F8CC104846C0B2F5
:20494000204440780143A5F8CC1019F1020940E03000C0B204283CD10020A5F8CE00B5F836
:20496000CE104846C0B2205C0143A5F8CE10B5F8CE000002A5F8CE00B5F8CE104846C0B2AB
:20498000204440780143A5F8CE1019F102094846C0B2205AA5F8D00019F102090020A5F86E
:2049A000D200B5F8D2104846C0B2205C0143A5F8D210B5F8D2000002A5F8D200B5F8D210D8
:2049C0004846C0B2204440780143A5F8D21019F10209BDE8F08730B4002513E050F8042B54
:2049E000D30744BFA9F101039A18091F042942F8045BFAD213468C0744BF15809B1CC907C5
:204A000048BF1D7050F8041B0029E7D130BC704730B40EE00268436802440830DC0744BFCC
:204A2000A9F10104E31852F8045B43F8045B091FF9D150F8041B0029ECD130BC70470000B7
:204A400070B403000022002400264FF6FF7000258D4214D25A5D504000221600082E0CD2A2
:204A6000C20706D580B2020048F2084090EA520001E080B24008761CF0E76D1CE8E780B2C2
:204A8000C04380B270BC704762F30F2262F31F42401810F0030308D0C91A1FD3DB0748BFCE
:204AA00000F8012D28BF20F8022D130030B414461546103928BF20E93C00FAD8490728BF78
:204AC00020E90C0048BF40F8042D890028BF20F8022D48BF00F8012D30BC7047C91818BF12
:0E4AE00000F8012DCB0728BF00F8012D70470C
:20500000534D353030322032333033333030302047333246333033000000000000000000D6
:125020000000000000000000000000000000000000007E
:205034004FF4C0414843401C0100481E0029FBD17047F8B5DFF8544901202070DFF85059CC
:20505400C4F8E4502000FFF7BAFA012084F8E800C4F8CC5114F1E8052800FFF7B0FADFF893
:20507400346900203070300001F004FC002086F8040116F58277380001F0FCFBDFF81809DF
:20509400466704674FF4C871A0F878104FF4FA62C0F88020C0F80071C0F8FC50A0F8781004
:2050B400C0F88020F1BD2DE9F84300260027DFF8EC4822002021002001F082FD050028000D
:2050D400C0B200280BD000265FF000081C212000FFF7ACFCE169884201D000221500220091
:2050F40020214FF4807001F06BFD06003000C0B200280BD000275FF000081C212000FFF753
:2051140095FCE169884201D00022160056EA0500C0B2002822D120275FF00008A1464246EE
:2051340039004846FFF7A6FC5020A0801E20E080602020815A20A0810A2060814FF416703E
:205154002082E0814FF47A70A08240F2B22060824FF42F712183E08200F01FF801F04CFED8
:2051740045F25550DFF838180A88824206D18A88DFF830381B789BB29A4206D00880DFF8A9
:2051940024080078888001F0ABFE01F0C8FEDFF8180801F086FFBDE8F18370B50024DFF858
:2051B400FC670020F0611E213000FFF73FFCF06132002021002001F0CAFD05003200202153
:2051D4004FF4807001F0C3FDC0B270BD1CB5042100226C462000FFF74DFC04208DF8030063
:2051F40003208DF80200DFF8C4078188ADF800106946006801F090FF13BDF8B50024002534
:20521400002600273000C0B20A2817DA0120FFF707FF0021DFF8940702689268808802400A
:205234005208150028002200C0B2D2B2904203D02C0000200600E5E7761CE3E72000C0B2FA
:20525400F2BD1CB5042100226C462000FFF712FC10208DF8030003208DF80200DFF85047CD
:20527400A088ADF800006946206801F055FFA08821684861DFF83C47A088ADF800006946A1
:20529400206801F049FFA08821684861DFF82847A088ADF800006946206801F03DFFA08840
:2052B40021684861DFF81447A088ADF800006946206801F031FFA08821684861DFF80047D9
:2052D400A088ADF800006946206801F025FFA08821684861DFF8EC46A088ADF800006946C2
:2052F400206801F019FFA08821684861DFF8D846A088ADF800006946206801F00DFFA08891
:2053140021684861DFF8C446A088ADF800006946206801F001FFA08821684861DFF8B0464A
:20533400A088ADF800006946206801F0F5FEA08821684861DFF8904DA088ADF800006946E7
:20535400206801F0E9FEA0882168486113BD1CB5042100226C462000FFF78CFB03208DF8A0
:20537400020004208DF80300DFF868068188ADF800106946006801F0CFFEDFF85C06818851
:20539400ADF800106946006801F0C6FEDFF84C068188ADF800106946006801F0BDFEDFF8F7
:2053B40040068188ADF800106946006801F0B4FEDFF830068188ADF800106946006801F048
:2053D400ABFEDFF824068188ADF800106946006801F0A2FEDFF8F40C8188ADF80010694665
:2053F400006801F099FEDFF8900D8188ADF800106946006801F090FE13BD10B40200D2B2C7
:20541400002A4FD1DFF89C350A00D2B29208D2B25C8862F308245C800A00D2B25208D2B22D
:205434005C8862F349245C800A00D2B25C8862F38A245C805A88C2F3002292B2002A05D089
:20545400DFF87C2594881268146104E0DFF870259488126854615A88C2F3402292B2002AB3
:2054740005D0DFF8602594881268146104E0DFF854259488126854615A88C2F3802292B2E0
:20549400002A05D0DFF8402593881268136104E0DFF83425938812685361DFF8FC2482F8E6
:2054B4007A10F1E00200D2B2012A4FD1DFF8F4340A00D2B29208D2B25C8862F3CB245C80FD
:2054D4000A00D2B25208D2B25C8862F30C345C800A00D2B25C8862F34D345C805A88C2F33C
:2054F400C02292B2002A05D0DFF8E02494881268146104E0DFF8D4249488126854615A88AD
:20551400C2F3003292B2002A05D0DFF8C42494881268146104E0DFF8B824948812685461A1
:205534005A88C2F3403292B2002A05D0DFF8982B93881268136104E0DFF88C2B9388126861
:205554005361DFF8542482F806119DE00200D2B2022A40F09980DFF84C340A00D2B29208AC
:20557400D2B25C8862F308245C800A00D2B25208D2B25C8862F349245C800A00D2B25C88F2
:2055940062F38A245C800A00D2B29208D2B25C8862F3CB245C800A00D2B25208D2B25C8818
:2055B40062F30C345C800A00D2B25C8862F34D345C805A88C2F3002292B2002A05D0DFF86F
:2055D400002494881268146104E0DFF8F4239488126854615A88C2F3402292B2002A05D02F
:2055F400DFF8E02394881268146104E0DFF8D4239488126854615A88C2F3802292B2002A0E
:2056140005D0DFF8C42394881268146104E0DFF8B8239488126854615A88C2F3C02292B23A
:20563400002A05D0DFF8A42394881268146104E0DFF898239488126854615A88C2F3003224
:2056540092B2002A05D0DFF8882394881268146104E0DFF87C239488126854615A88C2F32A
:20567400403292B2002A05D0DFF85C2A93881268136104E0DFF8502A938812685361C64A6D
:2056940082F87A1082F8061110BC704710B40A00D2B2002A14D1C34A0300DBB2548863F3AE
:2056B400861454800200D2B2002A04D0C04A93881268136103E0BE4A93881268536117E0A6
:2056D4000A00D2B2012A13D1B64A0300DBB2548863F3C71454800200D2B2002A04D0B54A25
:2056F40093881268136103E0B24A93881268536110BC704710B40A00D2B2002A14D1A94A8E
:205714000300DBB2548863F3CF3454800200D2B2002A04D0A84A93881268136103E0A64A8A
:2057340093881268536117E00A00D2B2012A13D19C4A0300DBB2548863F38E345480020038
:20575400D2B2002A04D09D4A93881268136103E09A4A93881268536110BC70470A00D2B2A2
:20577400002A04D1008880B2C00BC0B204E0008880B2800B10F0010070470A00D2B2002A86
:205794002DD1944A13689B689288134204D0027812F0FE02027003E0027852F00102027056
:2057B4008F4A13689B689288134204D0027852F00202027003E0027812F0FD020270864A69
:2057D40013689B689288134204D0027852F00402027036E0027812F0FB02027031E00A00A4
:2057F400D2B2012A2DD17F4A13689B689288134204D0027812F0FE02027003E0027852F0D1
:2058140001020270DFF8702913689B689288134204D0027852F00202027003E0027812F03D
:20583400FD020270704A13689B689288134204D0027852F00402027003E0027812F0FB02D8
:2058540002707047F0B50300002000225FF0000C5FF0000E0024D3F803509E886E4000272C
:205874003A00D2B2032A36DA0122BA401400320092B2224227D03A00D2B29A5C521CBC46F3
:205894005FFA8CFC03F80C203A00D2B29A5C0B2A1FDB9A88A2439A80B3F804C014EA050274
:2058B40052EA0C0CA3F804C00A78A2430A7091F800C014EA050252EA0C0C81F800C0220043
:2058D40092B2104305E00022BC465FFA8CFC03F80C207F1CC4E7D880F0BD2DE9F84F040060
:2058F4000D0016005FF001085FF0000941F6822706EB070A4A4641465046FFF7BBF8002069
:2059140085F8880041F68420345495F86C0041F686217054E86D012804DBE86D41F68521E1
:2059340070540BE041F6852180207054725CE86D72EA00027254705C401C70545FF04C088D
:20595400686FB830009041F6882006EB000942460099484601F09CFC5FF01809286F10F1CB
:20597400BC0A41F6D42006EB000B4A465146584601F08EFCDFF83C0C0068C5F8840006EB2D
:205994000701300000F032F8BDE8F18F7C230020AC260020742100204C250020A42600209B
:2059B400E8260020C4260020E8F7FF1F7CA3000884A300088CA3000894A300089CA300088B
:2059D400A4A30008ACA30008B4A30008BCA30008C4A30008D4A30008E4A30008F4A300082B
:2059F40004A40008DCA30008ECA300082DE9F04104000D006A262F0061786A20414304EBD8
:205A1400010010F1020832003900404601F040FC6078401C60706078402801D10020607042
:205A340060782178884207D12078401C20702078402801D100202070BDE8F0812DE9F34FCB
:205A540081B00500160000240020ADF802005FF0000C00220023687840302978411A4020AF
:205A740091FBF0F700FB17173900C9B26A20414340F20120814201D3042007003900C9B2EB
:205A94006A204143C91CADF800107E20210089B27054641C5520210089B27054641C0020D7
:205AB400210089B27054641CBDF80800210089B27054641CBDF8080080B2000A210089B280
:205AD4007054641C0020210089B27054641C0020210089B27054641C1F20210089B270548F
:205AF400641C3720210089B27054641C0020210089B27054641CBDF80000210089B2705486
:205B1400641CBDF8000080B2000A210089B27054641C200080B23754641C5FF00008404626
:205B34003900C0B2C9B288421DD25FF06A0929786A20414305EB010010F1020A200080B2B1
:205B540006EB000B4A465146584601F0A1FB6A342878401C28702878402801D1002028701F
:205B740018F10108DBE70020210089B27054641C0020210089B27054641C210089B2891EBA
:205B9400B01CFEF753FF0100200080B23154641C080080B2000A220092B2B054641C200038
:205BB40080B2BDE8FE8F2DE9F14F86B00021002000220023069CB4F80540ADF80E40BDF820
:205BD4000E404FF6FF75AC4209D0BDF80E00DFF8684B2478A4B2A04201D0002071E20698E0
:205BF400C479069880780838ADF80C00069809300290DFF8485B0020E8802000C0B20428A4
:205C140013D0372866D0382870D0392800F0B1803A2800F0E5803B2800F093813C2823D061
:205C34003D2847D0F7280FD04AE215F108000090DFF8040B03789BB22200D2B20021002077
:205C540001F079FBE8803BE215F108000090DFF8E80A03789BB22200D2B23221DFF8E00A5D
:205C740001F069FBE8802BE2BDF80C00182820D1DFF8D06A18223100029801F06DFC0028BC
:205C940009D01827029800903A000099300001F0FFFAFFF782FA15F108000090DFF8980A38
:205CB40003789BB22200D2B20021002001F043FBE88005E215F108000090DFF87C0A03782D
:205CD4009BB22200D2B21821DFF8780A01F033FBE880F5E115F10802DFF85C0A017889B2CD
:205CF400DFF8640AFFF7AAFEE880E9E1BDF80C0002283DD1002002990E783100C9B202296A
:205D140036DA0298407880071AD58C20DFF83C1A3200D2B242430A44012382F864303200D1
:205D3400D2B200FB02F00844DFF88818096881663100C9B20120FFF7A9FC6420FFF770F978
:205D54003100C9B20298407810F00100FFF7D2FCDFF8E4094188818015F1080100910378C3
:205D74009BB22200D2B20021002001F0E4FAE880A6E1BDF80C00022831D1002002990E78EF
:205D94003100C9B202292ADA0298407801280CD13100C9B2DFF8B4293300DBB28C2043436A
:205DB40002EB030000F094F90BE03100C9B2DFF89C293300DBB28C20434302EB030000F05D
:205DD400DDF915F108000090DFF86C0903789BB22200D2B20021002001F0ADFAE8806FE1F0
:205DF400BDF80C00072840F0AB800026022100220DF106073800FEF73DFE00208DF80600BB
:205E14000DF10607032078703000C0B2022880F288805FF08C08DFF834993000C0B208FBE6
:205E340000F04844406F90F8B800C00769D4DFF8180900210170002141700620059002982E
:205E5400401C0490DFF8F0A81AF1060B059A0499584601F01DFA3000C0B208FB00F04844B0
:205E740001214170DFF84C073100C9B208FB01F1494402684A603100C9B208FB01F14944A1
:205E940000220A7203213200D2B208FB02F209F802103100C9B208FB01F14944012281F8A2
:205EB40064203100C9B208FB01F1494402688A663100C9B208FB01F149443222A1F878200F
:205ED4003100C9B208FB01F809EB08010068C8673100C9B20120FFF7D9FB01208DF806002F
:205EF400FF20787015F1080000909AF800309BB22200D2B202210DF1060001F01CFAE8809E
:205F14001EE015F108000090DFF82C0803789BB22200D2B202210DF1060001F00CFAE880D2
:205F34000EE015F108000090DFF80C0803789BB22200D2B202210DF1060001F0FCF9E880F3
:205F5400BEE0BDF80C00072840F0B9805FF000080221002201AE3000FEF78CFD00208DF898
:205F7400040001AE03207070029807783800C0B2022880F296805FF08C08DFF8D097380089
:205F9400C0B208FB00F04844406F90F8B800C00778D506220298411C3800C0B208FB00F03D
:205FB4004844406FBE3001F0D7FA002808D006220298411CDFF8980701F0CEFA002861D13A
:205FD400DFF884070021017000214170062005900298401C0490DFF860A71AF10C0B059A03
:205FF4000499584601F054F93800C0B208FB00F0484401214172DFF8BC053900C9B208FBC7
:2060140001F149440268CA6004213A00D2B208FB02F209F802103900C9B208FB01F1494436
:20603400012281F864203900C9B208FB01F1494402688A663900C9B208FB01F14944322212
:20605400A1F878203900C9B208FB01F809EB08010068C8673900C9B20120FFF717FB0120B9
:206074008DF80400FF20707015F1080000909AF800309BB22200D2B2022101A801F05BF920
:20609400E8801CE015F108000090DFF8AC0603789BB22200D2B2022101A801F04CF9E88089
:2060B4000DE015F108000090DFF88C0603789BB22200D2B2022101A801F03DF9E880FFE729
:2060D400E88807B0BDE8F08FCCA30008FCA30008F8B504000D00666F276F0120307096F8CB
:2060F400B80050F0200086F8B80096F8B80010F0BF0086F8B800300000F0BCFB082038705C
:2061140097F8BC0050F0200087F8BC0096F8C600A7F8E0003800FEF752FA012020704FF445
:20613400C870A4F87800012084F888004FF4FA60C4F88000F1BD70B504000D0016000120E6
:206154002070200000F096FB94F8C600DFF80416098980B2884205D394F8B80050F040008D
:2061740084F8B8001020287094F8C600A5F8E0002800FEF724FA70BD0CA40008F8B504006F
:206194000D00666F276F96F8B80010F0DF0086F8B80096F8C600DFF8BC15098980B288428E
:2061B40005D396F8B80050F0400086F8B8000420387097F8BC0010F0DF0087F8BC0038008E
:2061D400FEF7FDF9022020704FF47A60A4F87800012084F888004FF4FA60C4F88000F1BD31
:2061F40070B504000D00160002202070200000F041FB94F8C600DFF85C15098980B2884219
:2062140005D394F8B80050F0400084F8B800022028702800FEF7D3F970BD2DE9FC41040073
:206234000D0016000221002201AF3800FEF722FC8DF804508DF80560DFF8007517F10808C0
:20625400CDF80080DFF8F00403789BB22200D2B2022101A801F06FF8F88001203871DFF86F
:20627400F80400683860F988404601F0ABFABDE8F38170B504000D0016000020207020003C
:2062940000F0F8FA082028700020A5F8E0002800FEF795F970BD70B504000D001600002067
:2062B4002070200000F0E6FA042028700020A5F8E0002800FEF783F970BD70B504000D00F5
:2062D4000021206F90F8BC00C00701D406262CE0606F90F8B800C00701D4002625E0606F3D
:2062F40090F8B800000604D4206F90F8BC00000601D5072619E0DFF85C048288636F93F8F9
:20631400C6309BB29A420FD22A00D2B2805C002801D0052609E0606F90F8B800400601D5A7
:20633400022602E0012600E00426300094F87A10C0B2884205D03100C9B22800C0B2FFF77B
:206354005CF870BD38B504000D00606F90F8B800C00719D5206F90F8BC00C00714D5606F94
:2063740090F8C600DFF8EC13098980B2884205D32900C9B22000FFF701FF0AE02900C9B237
:206394002000FFF7A5FE04E02900C9B22000FFF7F5FE31BD38B504000D00606F90F8B800A4
:2063B40000060BD4206F90F8BC0010F08100012804D1606F90F8B800C00705D42900C9B23F
:2063D4002000FFF7DBFE10E0606F90F8B800400605D52900C9B22000FFF7D0FE05E02A0004
:2063F400D2B2216F606FFFF7A6FE31BD70B504000D006078012831D194F86C0010F00300EA
:20641400032803D194F86400002816D06068C830D149096888420AD2012200213A20FFF7E6
:20643400FCFE2900C9B22000FFF7A8FEBAE0FF2201213A20FFF7F1FEB4E0002201213A20A0
:20645400FFF7EBFE02206070C348006860602A00D2B2216F606FFFF70CFFA3E06078022891
:2064740040F0A08094F86C0010F0030F16D0606F90F8B800C00705D5012202213A20FFF782
:20649400CCFE04E0FF2202213A20FFF7C6FE2A00D2B2216F606FFFF7ECFE83E0606F90F83B
:2064B400B800C00744D5AD4E06223100606FBE3001F052F8002806D006223100A44801F0B0
:2064D4004BF800280AD1002200213A20FFF7A5FE2900C9B22000FFF7FBFD63E004220221EE
:2064F4003A20FFF79AFE4FF4FA70FEF799FD4FF4FA70FEF795FD4FF4FA70FEF791FD4FF4C1
:20651400FA70FEF78DFD01206070934801686160012184F864100168A1663221A4F878108F
:206534000068E0672900C9B20120FFF7AFF839E0207A401C2072207A042829DA0222022185
:206554003A20FFF76AFE4FF4FA70FEF769FD4FF4FA70FEF765FD4FF4FA70FEF761FD4FF420
:20657400FA70FEF75DFD012060707B4801686160012184F864100168A1663221A4F8781077
:206594000068E0672900C9B20120FFF77FF809E0022200213A20FFF740FE2900C9B2200086
:2065B400FFF7ECFD6C480068C4F88400002084F8880070BD0027002070B504000D00607AE4
:2065D400012831D194F86C0010F00300032803D194F86400002816D0E068C8305E4909682C
:2065F40088420AD2012200213B20FFF716FE2900C9B22000FFF7C2FD95E0FF2201213B20AC
:20661400FFF70BFE8FE0002201213B20FFF705FE0220607250480068E0602A00D2B2216FEE
:20663400606FFFF738FE7EE0607A02287BD194F86C0010F0030F16D0606F90F8B800C007D7
:2066540005D5FF2202213B20FFF7E7FD04E0012202213B20FFF7E1FD2A00D2B2216F606F6D
:20667400FFF719FE5FE0606F90F8B800C00744D53B4E06223100606FBE3000F06DFF0028A8
:2066940006D006223100324800F066FF00280AD1022200213B20FFF7C0FD2900C9B22000CE
:2066B400FFF76CFD3FE0022202213B20FFF7B5FD4FF4FA70FEF7B4FC4FF4FA70FEF7B0FC5E
:2066D4004FF4FA70FEF7ACFC4FF4FA70FEF7A8FC0120607220480168E160012184F86410FF
:2066F4000168A1663221A4F878100068E0672900C9B20120FEF7CAFF15E0002200213B20DA
:20671400FFF78BFD2900C9B22000FFF737FD11482900C9B2415C012905D100212A00D2B290
:206734008154FEF73AFD0C480068C4F88400002084F8880070BD0000C4260020041B0020AE
:2067540000500008A6260020180000204C25002014A30008A426002000270020CA26002018
:20677400D02600202DE9F84304004FF482752E000027DFF8E4802000C0B2684308EB000997
:206794003A0031004846FEF775F94FF416512000C0B201F03DFC01212000C0B201F001FD80
:2067B40020222000C0B26843404410F112012000C0B201F01AFD80222000C0B205FB00F5EB
:2067D40008EB050010F134012000C0B201F0A0FDBDE8F18338B5040000252000C0B200286E
:2067F4000CD11E4801684908490001601C4801684908490001601B4805000FE02000C0B22D
:2068140001280BD11848016849084900016017480168490849000160154805000021200035
:20683400C0B201F0BEFC002240F22441280001F082FB00228021280001F0B5FB00224021C9
:20685400280001F0B0FB0021280001F065FB280001F0A4FA31BD00007421002030000240FA
:206874001C000240004800403004024058040240004C0040002141700021C1700021817048
:20689400002101740021C1600178002925D1C1784A1CC2700122C9B201440A71C1784A1CA6
:2068B400C2700222C9B201440A71C1784A1CC2700322C9B201440A71C1784A1CC270072208
:2068D400C9B201440A71C1784A1CC2700522C9B201440A71012141703BE00178022917D1BC
:2068F400C1784A1CC2700322C9B201440A71C1784A1CC2700722C9B201440A71C1784A1C7F
:20691400C2700522C9B201440A710121417020E0017801291DD1C1784A1CC2700422C9B2F9
:2069340001440A71C1784A1CC2700322C9B201440A71C1784A1CC2700722C9B201440A711D
:20695400C1784A1CC2700522C9B201440A7101214170704770B403000022002400260020B3
:2069740000258D4214D25A5D504000221600082E0CD2C20706D580B202004AF2010090EA07
:20699400520001E080B24008761CF0E76D1CE8E780B270BC70472DE9FE4F05000E001700D3
:2069B400984600240020ADF804005FF000097E20210089B26854641C0020210089B2685432
:2069D400641C0020210089B26854641C200080B22E54641CC2461FFA8AFA0097200080B289
:2069F40005EB000B52460099584600F051FC18EB040414F1020B85F801B0584680B2000A57
:206A1400A870210089B22800FFF7A4FF0100200080B22954641C080080B2000A220092B233
:206A3400A854641C200080B2BDE8FE8F2DE9F24F04001500002600275FF00008B4F8800002
:206A5400310089B2891D884238DB300080B2205C7E2831D1B4F801000700B4F88000390094
:206A740089B211FA86F1884226DB5FF000095FF0000A300080B22044390089B2084430F81B
:206A940002BC390089B2891E300080B22044FFF761FF5946020089B292B291420CD12900F4
:206AB400320092B22244D278C9B2914204D100990E800121884601E0761CBFE74046C0B251
:206AD400BDE8F28F2DE9F84304000D000020E6783100C9B2012908D002290BD0032914D0D8
:206AF400052933D0072926D03BE0A088A880E088688036E0062714F1040815F106093A00CD
:206B14004146484600F0C4FB2BE0A088A881A079A873B4F807002882607AA8746089A882A7
:206B3400A089E882E0892883208A6883A07C2877E07C687715E0282714F1040815F1240987
:206B54003A004146484600F0A3FB0AE0052714F1040815F11E093A004146484600F098FB1E
:206B7400FFE7BDE8F18310B40100002201204B78032B04D08B780B441B79042B0ED18B783E
:206B94005B1C8B7000230B748B78CC78A34202D206234B7011E000234B700EE00B7C5B1C2E
:206BB4000B740B7C032B02DA06234B7005E000234B7000230B7400231800C0B210BC704738
:206BD4002DE9F04104000D0016005FF001080027280080B2002860D001F02EFD002801D1EC
:206BF400002080464046C0B2002808D0A02001F0B8FD01F095FD002801D100208046404654
:206C1400C0B2002808D0200080B2000AC0B201F0A8FD01F085FD80464046C0B2002806D05B
:206C34002000C0B201F09DFD01F07AFD80464046C0B2002805D001F0FFFC002801D10020FA
:206C540080464046C0B2002808D0A12001F089FD01F066FD002801D1002080466D1E4046E5
:206C7400C0B2002817D0002007003800290080B289B2884208D201F099FD390089B2705427
:206C940001F01EFD7F1CF0E701F090FD390089B2705401F02DFD01F0FBFC4046C0B2BDE80C
:206CB400F0812DE9F04104000D00160000275FF00108280080B2002842D001F0BDFC0028FC
:206CD40001D1002080464046C0B2002808D0A02001F047FD01F024FD002801D10020804609
:206CF4004046C0B2002808D0200080B2000AC0B201F037FD01F014FD80464046C0B20028AD
:206D140006D02000C0B201F02CFD01F009FD8046002007003800290080B289B288420DD282
:206D34004046C0B2002807D0380080B2305C01F018FD01F0F5FC80467F1CEBE701F0A8FCA2
:206D5400052001F069FC4046C0B2BDE8F0812DE9F04704000D00160000275FF000085FF055
:206D7400000A200010F01F0F1BD014F01F00D0F1200007002800390080B289B2884200D247
:206D94002F00404680B206EB0002390089B218EB040080B2FFF785FF8146ED1B17EB0808FD
:206DB40001E05FF001094846C0B200281FD0280080B200281BD0202007002800390080B227
:206DD40089B2884200D22F00404680B206EB0002390089B218EB040080B2FFF762FF814623
:206DF400ED1B17EB08084846C0B20028DFD14846C0B2BDE8F08700002DE9F8435FF00008C9
:206E1400002441F6F875BA4E320008212800FFF7D7FE07003800C0B2002810D05FF0000830
:206E34005FF0000906213000FDF700FEF18802000B0092B29BB29A4201D00022170032006E
:206E540008214FF4F050FFF7BBFE80464046C0B200280FD000245FF0000906213000FDF737
:206E7400E5FDF18802000B0092B29BB29A4201D00022904658EA0700C0B2002807D1012084
:206E9400B0804AF6AA20308000F02AF826E03800C0B201280FD14046C0B200280BD13200FB
:206EB40008212800FFF78CFE320008214FF4F050FFF74DFF12E03800C0B200280ED14046A4
:206ED400C0B201280AD1320008214FF4F050FFF777FE320008212800FFF739FFBDE8F18315
:206EF40038B50024824D0020E88006212800FDF79DFDE8802A00082141F6F870FFF727FFC3
:206F1400012809D12A0008214FF4F050FFF71FFF012801D1012004002000C0B232BD2DE9B9
:206F3400F04100270026734C220040214FF49050FFF746FE05002800C0B200280FD0002753
:206F54005FF000083C212000FDF770FDE16B02000B0092B29BB29A4201D0002215002200F8
:206F740040214FF49450FFF72BFE07003800C0B200280FD000265FF000083C212000FDF7B0
:206F940055FDE16B02000B0092B29BB29A4201D00022170057EA0500C0B200280AD140269A
:206FB400DFF8548132004146200000F071F900F02CF828E02800C0B2012810D13800C0B274
:206FD40000280CD1220040214FF49050FFF7F8FD220040214FF49450FFF7B9FE13E0280095
:206FF400C0B200280FD13800C0B201280BD1220040214FF49450FFF7E3FD220040214FF40E
:207014009050FFF7A4FEBDE8F08170B50024394E0020F0633C213000FDF708FDF063320080
:2070340040214FF49050FFF792FE0500320040214FF49450FFF78BFEC0B270BD2DE9F0430C
:20705400060014001D0037005FF00008B8F5047F24D297EA17492000290018F03F0201F0CD
:20707400D1FB90EA09002549C7F34002C7F3402312EB4302C7F3005312EB8302C7F38063B8
:2070940012EBC3023B00DB0F12EB031211414840C00790EA570718F10108D7E73800BDE8BD
:2070B400F0832DE9F0478246DFF8548041F68319144E42F21207144C42F2160542464B463F
:2070D400DAF80000FFF7BAFF1049086032003B00DAF80400FFF7B2FF0D49086022002B0065
:2070F400DAF80800FFF7AAFF0A490860BDE8F087E826002064260020008000082E745C3A94
:20711400165518081731041017312911F4260020F8260020FC260020F0B50022002300242A
:2071340000250026002791F803C01CF00F0C91F803E05FEACE6E02D58A7852EA0C0C0A78B6
:2071540012062AD00268160000221400082C23D25FF0010E1EFA04F215000A882A4013009A
:20717400AB4217D1A20015000F22AA401700BE431CFA05F21643CA78282A04D11EFA04FE53
:20719400C0F814E006E0CA78482A03D11EFA04FEC0F810E0641CD9E706600A88B2F5807F21
:2071B4002EDB4268160000221400082C27D25FF0010E14F108021EFA02F215000A882A4005
:2071D4001300AB4219D1A20015000F22AA401700BE431CFA05F21643CA78282A04D114F1F3
:2071F40008021EFA02F24261CA78482A05D114F108021EFA02FEC0F810E0641CD5E7466087
:20721400F0BDF0B40022002300250027002802D51D4C246801E01D4C2468C0F3034586B27B
:2072340010F4401CBCF5401F07D134F07064174A176837F07067176011E0C20206D50322F0
:20725400AA4013009C4354F0706408E00200520DD2B2120116FA02F2944354F070640A0049
:20727400D2B2002A06D00200520DD2B2120116FA02F21443002802D5034A146001E0034A35
:207294001460F0BC704700001C0001400400014062B38B0708D0521E11F8013B00F8013BF9
:2072B40000F024808B07F6D1830740F0208000BF103A07D330B4B1E83810103AA0E83810B1
:2072D400F9D230BC530724BFB1E80810A0E8081044BF51F8043B40F8043BD20724BF31F86E
:2072F400022B20F8022B44BF0B7803707047121F17D35B0009D151F8043B20F8023B1B0C04
:20731400121F20F8023BF6D20BE051F8043B00F8013B1B0A20F8023B1B0C121F00F8013B5E
:20733400F3D238BF121D521E24BF11F8013B00F8013BF8D870472DE9FE4F04000D00160071
:207354001F00DDF830805FF000090020ADF804007E204946C9B208F8010019F10109552022
:207374004946C9B208F8010019F1010900204946C9B208F8010019F101094846C0B208F89B
:20739400007019F10109380080B2000A4946C9B208F8010019F1010900204946C9B208F898
:2073B400010019F1010900204946C9B208F8010019F101091F204946C9B208F8010019F111
:2073D40001094846C0B208F8006019F1010900204946C9B208F8010019F10109AA465FFA93
:2073F4008AFA00944846C0B208EB000B524600995846FFF74DFF15EB090900204946C9B216
:2074140008F8010019F1010900204946C9B208F8010019F10109B9F1010088F80200494648
:20743400C9B2891E18F10200FDF700FB01004846C0B208F8001019F10109080080B2000AB3
:207454004A46D2B208F8020019F101095FFA89F9484680B2BDE8FE8F2DE9F84F04000D00B3
:20747400160000275FF0000860880B2870DB6088414689B20B3188426ADB404680B22044ED
:2074940000797E2861D1404680B22044407955285BD100215FF000095FF0000A404680B27F
:2074B40020448079002807D0404680B2204490F806B01BF1030B0EE0404680B2204490F856
:2074D4000EB05FEA0B2B404680B22044407B50EA0B0B1BF10D0B584680B20B2835DB59465E
:2074F40089B2091F404680B22044801DFDF79EFA594689B211FA88F12144CA781202594618
:2075140089B211FA88F1214489780A430100130089B29BB2994218D10023414689B221443B
:20753400B1F809108C461FFA8CFC4FF6FF7EF44506D00B00B4469BB21FFA8CFC634504D1C1
:20755400A5F8008001231F0002E018F101088EE73800C0B2BDE8F28F0300002013F0030F46
:2075740009D0521E22BF13F8010B11F801CBB0EB0C00F3D0704711F0030F14D1121F22BFB6
:2075940053F8040B51F804CB6045F7D0121D0AD200BA9CFA8CFCB0EB0C0038BF6FF0000019
:2075B40088BF01207047521E22BF13F8010B11F801CBB0EB0C00F6D0521C08BF10467047AC
:2075D40030B585B00400042100226D462800FDF751FA1021002201AD2800FDF74BFA102086
:2075F4008DF8030003208DF80200894DA888ADF8000069462868FFF78FFDA888296848616F
:20761400844D280000F0CAFB83488188ADF8001003218DF8021018218DF80310694600687C
:20763400FFF77AFD7D488188ADF8001048218DF8031069460068FFF76FFD01940020ADF872
:2076540008000020ADF80A000020ADF80C000020ADF810000C20ADF80E0001A9280000F0F8
:20767400E5FB0121280000F057FC012240F22441280000F060FC01228021280000F093FCF0
:2076940001224021280000F08EFC05B030BD38B50400042100226D462800FDF7EBF92620DD
:2076B4008DF8000003208DF8010002208DF802008DF80340684601F0BAF831BD70B58CB077
:2076D40004000D00564E300001F008F95548019002941020039004950020059080200690B4
:2076F4000020079000200890002009904FF440500A9000200B9001A9300001F067F90122D8
:207714000221300001F08EF900F070F811208DF8000002208DF8010000208DF8020001200C
:207734008DF80300684601F082F80CB070BD70B58CB004000D00042100226E463000FDF71A
:2077540099F92C21002201AE3000FDF793F9364E300001F0C3F83348019002940020039000
:20777400049500200590802006900020079000200890002009904FF440500A9000200B9021
:2077940001A9300001F022F901220221300001F049F95FF4001025490860306840084000ED
:2077B400306010208DF8000002208DF8010000208DF8020001208DF80300684601F037F8AA
:2077D4000CB070BD124A9388126813615FF00072164B1A60164A10600A0092B2154B1A60B3
:2077F4000F4A136853F00103136070475FF000700E4908600A4801684908490001600548AF
:2078140000884006FBD50248818800684161704734A400080044004024A400082CA4000896
:2078340080000240044400406C000240040002408C0002408400024078B585B004000D00EF
:20785400042100226E463000FDF714F91021002201AE3000FDF70EF910208DF803000320E0
:207874008DF802002000C0B2002854D1DFF8EC64B088ADF8000069463068FFF74DFCB088CC
:2078940031684861DFF8D864300000F087FADFF8D4048188ADF8001003218DF8021018217D
:2078B4008DF8031069460068FFF736FCDFF8B8048188ADF8001048218DF803106946006874
:2078D400FFF72AFC01950020ADF808000020ADF80A000020ADF80C000020ADF810000C2074
:2078F400ADF80E0001A9300000F0A0FA0121300000F012FB012240F22441300000F01BFB1E
:2079140001228021300000F04EFB01224021300000F049FB40E0DFF85464B088ADF80000B2
:2079340069463068FFF7F8FBB0883168486118208DF80300DFF838048188ADF80010694649
:207954000068FFF7E9FB48208DF80300DFF824048188ADF8001069460068FFF7DDFBDFF868
:207974001864300000F01AFA01950020ADF808000020ADF80A000020ADF80C000020ADF87B
:2079940010000C20ADF80E0001A9300000F04EFA0121300000F0C0FA06B070BD7CB50400BE
:2079B4000D00042100226E463000FDF763F82000C0B2002803D125208DF8000002E035209D
:2079D4008DF8000003208DF8010002208DF802008DF80350684600F02AFF73BDF8B504003C
:2079F4000D0016002000C0B2012814D1DFF8887340F26551380000F0F8FA2A00D2B240F2FC
:207A14002551380000F097FA3200D2B240F22661380000F090FAF1BDF8B58CB004000D005A
:207A340016002000C0B200284CD1042100226F463800FDF71FF82C21002201AF3800FDF7BB
:207A540019F8CE4F380000F049FFCD480190029510200390049600200590802006900020CF
:207A7400079000200890002009904FF440500A9000200B9001A9380000F0A8FF0122022103
:207A9400380000F0CFFF4FF40050BE4908603868400840003860B24800884006FBD5AF488B
:207AB4008188006841610E208DF8000002208DF8010000208DF8020001208DF80300684646
:207AD40000F0B5FE0DB0F0BDF8B58CB004000D0016002000C0B2002844D1042100226F46AA
:207AF4003800FCF7C7FF2C21002201AF3800FCF7C1FFA54F380000F0F1FEA148019002955B
:207B140000200390049600200590802006900020079000200890002009904FF440500A9084
:207B340000200B9001A9380000F050FF01220221380000F077FF5FF400309249086038680B
:207B54004008400038600F208DF8000002208DF8010000208DF8020001208DF80300684697
:207B740000F065FE0DB0F0BD0200D2B2002A08D10A00D2B2824B1A80794A1288120608D465
:207B9400FAE70A00D2B2814B1A807B4A12881206FBD570474FF4C0414843401C0100481E6C
:207BB4000029FBD170472DE9F84304000D00160000272000C0B200281FD1DFF8A081B8F814
:207BD4000400D8F8001008610120FFF7E3FF5FF00009B14508D215F809102000C0B2FFF775
:207BF400C3FF19F10109F4E70120FFF7D3FFB8F80400D8F8001048611FE0DFF87081B8F823
:207C14000400D8F8001008615FF00009B14508D215F809102000C0B2FFF7A6FF19F1010974
:207C3400F4E70120FFF7B6FF534800884006FBD5B8F80400D8F800104861BDE8F18370B5D5
:207C540004000D0016002000C0B2002811D143488188006801614FF400504A4908604C48CD
:207C740005604C4806604548016851F00101016009E02000C0B2012805D132002900200002
:207C9400C0B2FFF790FF70BD0100C9B200290CD15FF400313B4A116080213F4A11603A4992
:207CB4000A6852F001020A6007E00100C9B2012903D12E498A8809684A6170470100C9B256
:207CD400002911D14FF400512E4A11602B490A68520852000A60224909884906FBD51F4989
:207CF4008A8809684A61FFE770470100C9B2002909D15FF40031234A116023490A6852088C
:207D140052000A60FFE7704770B5040000252000C0B200280DD1124E0721300000F04FF920
:207D3400002817D00721300000F057F90120050010E02000C0B201280CD10F4E0F2130001D
:207D540000F03DF9002805D00F21300000F045F9012005002800C0B270BD00005CA300086A
:207D7400003801404CA3000854A3000874A3000864A300086CA30008005000404400024025
:207D94000438014004000240580002400450004050000240480002405C00024010B504005B
:207DB400584884420AD101214FF4804000F096FF00214FF4804000F091FF36E052488442AA
:207DD4000AD101215FF4003000F096FF00215FF4003000F091FF28E04C4884420AD1012107
:207DF4005FF4802000F088FF00215FF4802000F083FF1AE0464884420AD101215FF40020C1
:207E140000F07AFF00215FF4002000F075FF0CE04048844209D101215FF4801000F06CFF79
:207E340000215FF4801000F067FF10BD2DE9F84F86B004000D00002600275FF000085FF070
:207E540000095FF0000AA8890028A346218A4CF6FF700140E8880143009100982082A18924
:207E74004EF6F3100140AA882889024368890243114300910098A081A18A4FF6FF4001407A
:207E9400A889014300910098A08201A800F090FE1C48834501D1049900E00399A0890004A3
:207EB40007D5192000FB01F02A685200B0FBF2F206E0192000FB01F02A689200B0FBF2F27C
:207ED4006420B2FBF0F6360133001B09642000FB1323A089000408D5D80032306427B0FBBA
:207EF400F7F010F00700064307E0180132306427B0FBF7F010F00F000643268107B0BDE85D
:207F1400F08F0000003801400044004000480040004C0040005000400A00D2B2002A04D0A1
:207F3400828952F40052828104E083894DF6FF721340838170472DE9F0410023002500271F
:207F54005FF0000E0C0040F66A16A4B2B44280460C00E4B26409E4B20E00B6B216F01F0696
:207F74005FF0010C1CFA06FC012C02D118F10C0806E0022C02D118F1100801E018F114084E
:207F94001300DBB2002B06D0D8F800305CEA0303C8F8003005E0D8F8003033EA0C03C8F81F
:207FB4000030BDE8F0811300DBB2002B03D0838A0B43838202E0838A8B43838270470200EE
:207FD4000023080080B2B0F5007F1088084201D0012000E00020C0B270470A0092B292052A
:207FF4000A0092B2D2430280704770B4002200240B0040F66A159BB2AB420B009BB21B0AF0
:2080140001259D402E00B6B2F643068070BC704778B585B004000D00042100226E46300073
:20803400FCF728FD1021002201AE3000FCF722FD10208DF8030003208DF802002000C0B2DC
:20805400002854D1DFF83065B088ADF8000069463068FFF761F8B08831684861DFF81C650E
:208074003000FFF79BFEDFF818058188ADF8001003218DF8021018218DF8031069460068D8
:20809400FFF74AF8DFF8FC048188ADF8001048218DF8031069460068FFF73EF80195002005
:2080B400ADF808000020ADF80A000020ADF80C000020ADF810000C20ADF80E0001A93000D1
:2080D400FFF7B4FE01213000FFF726FF012240F224413000FFF72FFF012280213000FFF77F
:2080F40062FF012240213000FFF75DFF57E02000C0B2012853D1DFF89064B088ADF8000047
:2081140069463068FFF708F8B08831684861DFF87C643000FFF742FEDFF874048188ADF87A
:20813400001003218DF8021018218DF8031069460068FEF7F1FFDFF85C048188ADF800109E
:2081540048218DF8031069460068FEF7E5FF01950020ADF808000020ADF80A000020ADF823
:208174000C000020ADF810000C20ADF80E0001A93000FFF75BFE01213000FFF7CDFE0122CC
:2081940040F224413000FFF7D6FE012280213000FFF709FF012240213000FFF704FF06B0E5
:2081B40070BD7CB504000D00042100226E463000FCF760FC2000C0B2002803D127208DF868
:2081D400000006E02000C0B2012802D134208DF8000003208DF8010002208DF802008DF867
:2081F4000350684600F023FB73BDF8B58CB004000D001600042100226F463800FCF73AFCBF
:208214002C21002201AF3800FCF734FC2000C0B2002807D1DFF8800300F060FBDFF87C0343
:2082340001900AE02000C0B2012806D1DFF8700300F054FBDFF86C03019002951020039063
:20825400049600200590802006900020079000200890002009904FF440500A9000200B9035
:208274002000C0B2002820D1DFF82C7301A9380000F0ACFB01220221380000F0D3FB2020D4
:20829400DFF8241308603868400840003860DFF8EC0200884006FAD5DFF8DC02818800680C
:2082B40041610C208DF8000024E02000C0B2012820D1DFF8EC7201A9380000F087FB0122FB
:2082D4000221380000F0AEFBDFF8E002DFF8E01208603868400840003860DFF8B0020088DB
:2082F4004006FAD5DFF8A0028188006841613B208DF8000002208DF8010000208DF802009A
:2083140001208DF80300684600F091FA0DB0F0BDF8B58CB004000D001600042100226F4601
:208334003800FCF7A7FB2C21002201AF3800FCF7A1FB2000C0B2002806D1DFF8780200F0A4
:20835400CDFA9648019008E02000C0B2012804D1994800F0C3FA9348019002950020039017
:20837400049600200590802006900020079000200890002009904FF440500A9000200B9014
:208394002000C0B2002815D18A4F01A9380000F01DFB01220221380000F044FB4FF4007006
:2083B4008149086038684008400038600D208DF8000017E02000C0B2012813D17E4F01A9F8
:2083D400380000F003FB01220221380000F02AFB7A487749086038684008400038603A20CC
:2083F4008DF8000002208DF8010000208DF8020001208DF80300684600F019FA0DB0F0BDD1
:2084140010B40300DBB2002B10D15B4B9C881B681C612023644C2360694B1960694B1A604D
:208434005D4B1C6854F001041C6013E00300DBB2012B0FD1544B9C881B681C615B4B5C4C97
:208454002360614B1960614B1A60554B1C6854F001041C6010BC70470100C9B200290CD14C
:208474004FF40071504A11608021594A116051490A6852F001020A600EE00100C9B2012925
:208494000AD14E494A4A11608021524A11604A490A6852F001020A6070470100C9B2002993
:2084B40010D12021404A11603B490A68520852000A60324909884906FBD52F498A88096859
:2084D4004A6113E00100C9B201290FD13749384A116033490A68520852000A602B490988E8
:2084F4004906FBD528498A8809684A6170470100C9B2002909D14FF400712B4A11602D4964
:208514000A68520852000A600BE00100C9B2012907D12A49264A116027490A685208520074
:208534000A60704770B5040000252000C0B200280DD1124E07213000FFF741FD002817D025
:2085540007213000FFF749FD0120050010E02000C0B201280CD10D4E07213000FFF72FFDF0
:20857400002805D007213000FFF737FD012005002800C0B270BD00002CA30008004800401C
:208594001CA3000824A3000844A30008004C004034A300083CA300081C0002400448004006
:2085B40058040240044C0040040002400000021004040240300002403004024000020010DD
:2085D4002800024020000240640402405C04024034000240340402401CB5042100226C46B5
:2085F4002000FCF747FA03208DF8020014208DF8030082488188ADF8001069460068FEF719
:208614008BFD7F488188ADF8001069460068FEF783FD00F03DF813BD4FF4C0414843401C8D
:208634000100481E0029FBD17047002064210800411E0028FBD1704710B5704CA08821682A
:2086540008616F48818800680161FFF7EEFF20688068002801D1012000E00020217911F00A
:208674000101084201D0002011E0A08821684861FFF7DBFF20688068A188084201D00020BA
:2086940005E0A08821684861FFF7CFFF012010BD38B55B4CA08821684861FFF7C6FF574D88
:2086B400A88829684861FFF7C0FFA08821680861FFF7BBFFA88829680861FFF7B6FF31BDFA
:2086D40010B54F4CA08821684861FFF7AEFF4B48818800684161FFF7A8FFA08821680861CC
:2086F400FFF7A3FFA08821684861FFF79EFF10BD10B5434CA08821684861FFF796FF3F4854
:20871400818800680161FFF790FFA08821680861FFF78BFFA08821684861FFF786FF10BDB1
:2087340038B5374CA08821684861FFF77EFF334DA88829680861FFF778FFA08821680861B7
:20875400FFF773FF28688068A988084204D0A08821684861002003E0A088216848610120FE
:2087740032BD70B5040008252800451EC0B2002817D0234EB08831684861200604D51F4843
:2087940081880068016103E01C48818800684161FFF74BFFB08831680861FFF746FF64007F
:2087B400E2E7174881880068416170BDF8B508240025124EB088316808612000441EC0B2B1
:2087D400002813D06D000E4FB88839684861FFF72CFFB88839680861FFF727FF306880681F
:2087F400B1880842E9D055F00105E6E704488188006841612800C0B2F2BD000014A40008A9
:208814001CA40008D2B2203A22BF21FA02F0002170472032D141D04048409140D140484072
:208834007047000025490143254A11607047F0B4002200230F24C17800291FD020490968DD
:2088540011F4E061D1F5E061090AD1F104052B00CC4045789D408678264035432D012A00D4
:20887400184D0678AA550125067816F01F06B540154E07787F1146F8275009E0012105788F
:2088940015F01F05A940114D0678761145F82610F0BC70470E4A0A4002430E4B1A60704708
:2088B400042805D10C490A6852F004020A6004E009490A6832F004020A6070470000FA0539
:2088D4000CED00E000E400E000E100E080E100E080FFFF1F08ED00E010E000E001684908E9
:2088F400490001600021016000214160002181600021C1605149884205D151490A6852F0AA
:208914000F020A6061E04F49884205D14C490A6852F0F0020A6058E04B49884205D14849AD
:208934000A6852F470620A604FE04849884205D143490A6852F470420A6046E044498842F2
:2089540005D13F490A6852F470220A603DE04149884205D13A490A6852F470020A6034E07F
:208974003D49884205D136490A6852F070620A602BE03A49884205D139490A6852F00F02D9
:208994000A6022E03749884205D135490A6852F0F0020A6019E03449884205D130490A68A8
:2089B40052F470620A6010E03049884205D12C490A6852F470420A6007E02D49884204D1D3
:2089D40027490A6852F470220A60704730B4002304686FF30E148D680A6A15430A69154325
:2089F4004A6915438A691543CA6915434A6A15438A6A15432C430460CA6842600A6882602F
:208A14004A68C26030BC70470A00D2B2002A04D0026852F00102026003E002685208520035
:208A3400026070471300DBB2002B03D003680B43036002E003688B430360704708000240D0
:208A5400040002401C0002403000024044000240580002406C00024080000240080402400E
:208A7400040402401C040240300402404404024058040240DFF8E412086850F001000860B2
:208A9400DFF8DC221368DFF8DC02034013600B68DFF8D40203400B60086830F4802008609D
:208AB400106830F4FE0010605FF41F00DFF8BC1208607047DFF8A4120A6832F480320A6021
:208AD4000A6832F480220A600200B2F5803F03D0B2F5802F05D009E00A6852F480320A60BB
:208AF40004E00A6852F4A0220A60FFE7704738B50020009000240025312000F00BF90500CD
:208B14000098401C009000984FF6FF71884203D02800C0B20028EFD0312000F0FBF80028F6
:208B340001D0012000E00020C0B232BD30B400238B4D2C6834F47C1451EA000214432C6083
:208B540030BC70470100C9B2894A116070470021834B1A689208920002431A60704780480C
:208B7400006810F00C00704700217D4B1A6832F0F00202431A6070470021794B1A6832F434
:208B9400E06202431A6070470021754B1A6832F4605252EAC0021A607047764908607047C1
:208BB40000216F4B1A6832F4404202431A6070472DE9F04F01000022002500200026684F8C
:208BD400D7F800C01CF00C0C6346002B04D0042B05D0082B06D023E0684A0A6022E0684A46
:208BF4000A601FE03A6812F470123B6813F480331800920C921C1500002804D1614A02FB53
:208C140005F20A600BE03A68920304D55E4A02FB05F20A6003E05A4A02FB05F20A6001E018
:208C3400564A0A603C6814F0F0042409DFF85C9119F804E00A6832FA0EF24A603B6813F4A2
:208C5400E0631B0A19F803804A6832FA08F28A603A6812F46052D20A19F80290D1F804A0FC
:208C74003AFA09FAC1F80CA03F6817F44047BF0BDFF81CA11AF807A0D1F80CB0BBFBFAFBC4
:208C9400C1F810B0BDE8F08F0A00D2B2002A04D0404A13680343136003E03E4A136883432D
:208CB400136070470A00D2B2002A04D03A4A13680343136003E0384A136883431360704762
:208CD4000A00D2B2002A04D0344A13680343136003E0324A13688343136070470A00D2B2EA
:208CF400002A04D02E4A13680343136003E02C4A13688343136070470A00D2B2002A04D066
:208D1400284A13680343136003E0264A136883431360704730B401000020002300250A0084
:208D3400D2B25209D2B2012A02D10C48046806E0022A02D11048046801E01B4804680B009A
:208D5400DBB213F01F032000D840C00701D5012000E00020C0B230BC7047000000100240F0
:208D7400041002400000FFF8FFFFF6FE0810024060004242D80042422010024000127A0008
:208D9400001BB70000093D00808D5B00040000201400002014100240181002401C100240A9
:208DB4000C10024010100240241002404FF4C0414843401C0100481E0029FBD1704738B53E
:208DD4000024FFF757FE5FF48030FFF773FEFFF78EFE05002800C0B201282BD10020FFF74A
:208DF400C3FE0020FFF7D0FE4FF48060FFF7C4FE4FF44040FFF7D4FE0020FFF7CEFE022050
:208E140000F06EFC102000F074FC5FF400115FF48030FFF78BFE0120FFF794FE3920FFF776
:208E340079FF0028FAD00220FFF791FEFFF797FE0828FBD131BD10B504002100C9B244F2FD
:208E54003D20FFF72FFF2100C9B25FF4F010FFF737FF2100C9B20320FFF716FF0121DFF89F
:208E74003408FEF7CEF910BD80B54FF480415FF00060FFF70FFD4FF4A060FFF7D3FC01BD69
:208E940070B5FFF79CFFFFF7EFFF0120FFF7D3FF00F03CFC72B6FFF79FFBFCF797F9DFF801
:208EB400F847FCF7AAF92070FCF7CBF900210120FCF720FC01210120FCF71CFC042102209C
:208ED400FCF79BFA4FF47A70FFF770FF02210220FCF793FA4FF47A70FFF768FF01210220D1
:208EF400FCF78BFA4FF47A70FFF760FFFCF72FFAFCF7D9F800F03AFC00F05CFC00F078FCB2
:208F140000F0C3FC00F0FEFC0020FBF707F90020FDF728FC0120FBF701F90120FDF722FC1A
:208F3400FCF787F802250026A41C320029002000FBF7A0FD00210020FCF7DCFB0121002047
:208F5400FCF7D8FB07210220FCF757FA62B60120DFF84817086070BDDFF84007017889077E
:208F740003D5016831F00201016070472DE9FC47DFF82C4707212000FFF721F800280AD064
:208F940007212000FFF729F800F0DCFC0A20FFF70DFF00F0B7FCDFF80C673078022802D0D9
:208FB400307801284FD1DFF80047207900284AD100254FF40978B146DFF8F076BA4642460D
:208FD40049465046FEF764F9002030700020708078880B2823DB0020ADF80000DFF8B806AB
:208FF400027892B269463800FEF736FA002816D0BDF800003844001DFCF7D5FDE080E088AA
:2090140000280CD001202071DFF8A40600682060E18814F10800FEF7D5FB01200500280094
:20903400C0B200280FD15FF40010DFF8881608604FF40870DFF880160860DFF8800601680C
:2090540051F001010160DFF86006017901291AD101686431DFF858261268914213D20021E6
:209074000171FEF7C3FB5FF40010DFF8481608604FF40870DFF840160860DFF840060168E1
:2090940051F001010160BDE8F38738B504004021DFF80826106811FA04F3184257D0DFF8D0
:2090B40020362500EDB28C2045431D441068A14030EA01011160DFF80C062100C9B230F85A
:2090D40011100905090D15F1100000F071FC15F1100000F094FCDFF8F005C18815F1100003
:2090F40000F0ACFC002815D095F86C00C0F3C000C0B200282BD12100C9B20120FCF7FAFA11
:2091140095F86C0050F0080085F86C00012085F888001CE095F86C00C0F3C000C0B20028E9
:2091340015D02100C9B2DFF8A405FCF717FB00280DD12100C9B20020FCF7DCFA95F86C0091
:2091540010F0F70085F86C00012085F8880031BDF8B504001020DFF844150A6810FA04F383
:209174001A4229D00A68A04032EA00000860DFF860552100C9B22000C0B205EBC000C01C6A
:20919400FCF7FBFA8C26DFF838752000C0B27043384410F16C012000C0B205EBC000FCF739
:2091B40051FB002808D02000C0B206FB00F607EB0600012180F88810F1BD2DE9FC47040091
:2091D4000026DFF810152200D2B2E820424301EB02052000C0B2FEF797FD00280AD02000F6
:2091F400C0B2FAF7E9FF0A20FFF7E0FD2000C0B2FAF794FF6878002800F0C78095F8B6007B
:20921400022803D095F8B600012828D1B5F8B400082817DB6878022814D10020ADF80000A1
:2092340095F8D420694615F13400FBF720F9002808D02900BDF8000028443430FBF7BEFA4D
:2092540083206870002085F8B6000020A5F8B4006878022803D12000C0B2FEF715FD687864
:20927400012818D1A878E978884280F08E8015F112012800FBF715F868866A8E15F11201C0
:209294002000C0B2FEF7DBFCDFF824040068E8600220687079E06878022811D1E8681430DA
:2092B400DFF80C14096888426FD2852068702000C0B2FEF703FD2000C0B2FEF716FD64E045
:2092D4006878000656D50027687810F07F0068702800FBF74CF906006878002845D195F8FB
:2092F400BC703000C0B200280ED15FF018085FF0000915F1BC0A4A4641465046FBF7BAFB9E
:20931400002085F8BC001FE095F8BC0050F0010085F8BC0095F8D20010F00F000A2806DA9E
:20933400B5F8D2104CF610700140012906DB95F8BC0050F0800085F8BC0005E095F8BC000C
:2093540010F07F0085F8BC00380095F8BC10C0B288420AD00121DFF868232300DBB28C20BA
:20937400434302EB030080F88810DFF844030068E8600AE06878062807D1E868801CCC49B4
:209394000968884201D201206870BDE8F3872DE9FC4704000026DFF840132200D2B24FF4FD
:2093B4008270424301EB02052000C0B2FFF7BAF800280AD02000C0B2FDF70CFA0A20FFF747
:2093D400F5FC2000C0B2FDF7CDF96878002800F0CD8095F8B600022803D095F8B60001284B
:2093F4002AD1B5F8B400062819DB6878022816D10020ADF80000A87828440279694615F169
:209414003400FDF713FB002809D015F1B801BDF8000028443430FDF755FB832068700020DE
:2094340085F8B6000020A5F8B4006878022803D12000C0B2FFF710F8687801281BD1A878F1
:20945400E978884280F0928000230022A8782844017915F11200FDF79EFA68866A8E15F170
:2094740012012000C0B2FEF7CBFF91480068E860022068707AE06878022810D1E868143018
:209494008B490968884271D2852068702000C0B2FFF703F82000C0B2FFF729F866E0687897
:2094B400000658D50027687810F07F0068702800FDF759FB06006878002848D195F8B870BB
:2094D4003000C0B200280ED15FF04C085FF0000915F1B80A4A4641465046FBF7CBFA002088
:2094F40085F8B80023E095F8B80050F0010085F8B80095F8D70000280CD195F8D80010F097
:20951400FA0F07D195F8D900002803D195F8DA00002806D095F8B80050F0800085F8B80055
:2095340005E095F8B80010F07F0085F8B800380095F8B810C0B2884209D00121604A2300A8
:20955400DBB28C20434302EB030080F8881058480068E8600AE06878062807D1E868801C2C
:2095740053490968884201D201206870BDE8F38770B5040052492200D2B28C20424301EB8E
:2095940002054B4ED5F88410D5F8800041183068814203D395F8880000280BD028780128FE
:2095B40002D02878022805D14C4A29002000C0B2FCF793F995F86400002812D095F86C0061
:2095D40010F00100002804D1A86E78303168884207D22100C9B20020FCF758F8002085F8E3
:2095F4006400286F4078002852D1686F407800284ED1E86FB5F8781040183168884247D223
:209614003068E867287800280AD12100C9B22800FCF798FE2100C9B22800FCF74EFE37E045
:20963400287801280AD12100C9B22800FCF7B2FE2100C9B22800FCF740FE29E02878022843
:209654000BD12200D2B2296F686FFCF7C9FD2100C9B22800FCF731FE1AE0287803280AD1C6
:209674002100C9B22800FCF7C1FE2100C9B22800FCF723FE0CE02878042809D12100C9B25A
:209694002800FCF799FF2100C9B22800FCF715FE70BD000000023000C426002000000020B0
:2096B400004400402C1D0020041B0020501F00200027002004000240700002406C000240EE
:2096D4004C250020F0260020A4260020C8260020D82600207C2300207421002018000020ED
:2096F4000021DFF824301A6812F0380202431A607047DFF814100A6832F010020A600A6859
:2097140002430A6070470000002002407047000010B4020052B2002A05D40A011D4B040072
:2097340064B21A5508E00A011B4B040064B214F00F04234403F8042C10BC704710B5040028
:20975400601EB0F1807F01D301200EE0601E134908600F215FF0FF30FFF7DAFF00201049BC
:20977400086007200F490860002010BD80B50420FFF796F80C48FFF7E1FF00200B490860B6
:2097940000200B49086000215FF0FF30FFF7C0FF01BD000000E400E018ED00E014E000E04A
:2097B40018E000E010E000E0C027090000270020042700201CB5042100226C462000FBF78F
:2097D40059F900208DF8030003208DF8020046488188ADF8001069460068FDF79DFC434856
:2097F4008188ADF8001069460068FDF795FC13BD18B585B03E4C200000F040F900200090A6
:2098140001208DF8040001208DF805005FF4602002900020039002208DF810006946200041
:2098340000F05BF9072301220021200000F0B5F9072302220121200000F0AFF9012120003A
:2098540000F071F90121200000F07BF9200000F086F9200000F088F90028FAD1200000F0D1
:209874008DF9200000F08FF90028FAD101212148FFF7CAF80121200000F055F91E48016831
:2098940051F4A001016006B010BD18B58BB02C2100226C462000FBF7EDF8164C2000FFF752
:2098B4001DF81648009016480190002002900220039000200490802005904FF48070069089
:2098D4004FF480600790202008900020099000200A9069462000FFF779F801212000FFF701
:2098F40093F80CB010BD000004A300080CA300080024014008000240082401404C2401400D
:20991400F026002080B55FF4E130FDF759FE0120FDF7BDFE4FF408711E48FDF7CFFE4FF423
:2099340008711D48FDF703FF5FF400101B4908604FF408701A4908601A48016851F001017C
:20995400016001BD10B517480168490849000160154801684908490001600020FDF797FEE2
:20997400124C002240F224412000FEF7E4FA002280212000FEF717FB002240212000FEF747
:2099940012FB00212000FEF7C7FA2000FEF706FA10BD00000C1B0020301D002004000240D3
:2099B400700002406C00024080000240004400408268521C82600368027A12F00F0200EBCE
:2099D4008202D2689B1A03608268002A01D110228260027A12F00F0200EB8202D16002680A
:2099F4008A1802608268102A03D302681209426004E002688368B2FBF3F24260704710B446
:209A140000217FF01302C26400221100C9B25A2909DA4168084B1400E4B233F81430994263
:209A340001D3521CF1E7C16C51FA82F1C164C16C891EC16410BC70473CA100080300012063
:209A5400DA6C914209DA1A6D521C1A651A6DB2F57A7F10D2002210000DE01A6D002A08D0D1
:209A7400DA6C921C8A4206DA00221A650022100001E000221000C0B27047000010B504005A
:209A9400DFF8340284420AD101214FF40070FFF725F900214FF40070FFF720F91CE0DFF865
:209AB4001C0284420AD101214FF48060FFF716F900214FF48060FFF711F90DE0DFF800027F
:209AD400844209D101214FF40040FFF707F900214FF40040FFF702F910BDF0B400230024EA
:209AF4004568DFF8E02115400A680E7952EA0622154345608668DFF8D0211640CF688A68E9
:209B140017434A7957EA42073E438660C76A37F470070A7C521E14432200D2B257EA0257C3
:209B3400C762F0BC70470A00D2B2002A04D0826852F00102826003E082685208520082608D
:209B540070470A00D2B2002A04D0826852F48072826003E0826832F4807282607047816843
:209B740051F0080181607047010000228868000701D5012000E00020C0B27047816851F08B
:209B9400040181607047010000228868400701D5012000E00020C0B270472DE9F04100262D
:209BB40000270C00E4B20A2C19DBC4680725B1F10A0C5FF0030E1CFB0EFC15FA0CFC34EAD8
:209BD4000C049E465FFA8EFEB1F10A055FF0030815FB08F51EFA05F52C43C46013E004697B
:209BF40007255FF0030C11FB0CFC15FA0CFC34EA0C049E465FFA8EFE032511FB05F51EFA5F
:209C140005F52C4304611600F6B2072E19DA466B5FF01F0C571E5FF0050E17FB0EF71CFA4D
:209C340007F7BE438E465FFA8EFEB2F1010C5FF005081CFB08FC1EFA0CFC5CEA0606466316
:209C540037E01600F6B20D2E19DA066B5FF01F0CD71F5FF0050E17FB0EF71CFA07F7BE437E
:209C74008E465FFA8EFEB2F1070C5FF005081CFB08FC1EFA0CFC5CEA0606066319E0C66AE6
:209C94005FF01F0CB2F10D075FF0050E17FB0EF71CFA07F7BE438E465FFA8EFEB2F10D0C7C
:209CB4005FF005081CFB08FC1EFA0CFC5CEA0606C662BDE8F081000000240140002801409B
:209CD400003C0140FFFEF0FFFDF7F1FF7047FEE7FEE7FEE7FEE7704770477047A74801685B
:209CF400491C0160A6490A6852F002020A600268D20704D40A6852F0C0020A6003E00A6829
:209D140052F030020A609F4991F89E21802A08D1D1F8A021D21C0068824202D2022081F88B
:209D34009E0170475FF400109749086097480168490849000160964896490968D1F508715E
:209D5400418001210170704780B5FDF74FFD5FF400108D4908604FF408708E4908608B4801
:209D7400016851F00101016000208B49087101BD8A480188C90610D55FF40011824A1160E7
:209D940082490A68520852000A608149814A1268D2F508724A8002220A70008880490880CB
:209DB400804800888049088070475FF40030764908607E48016849084900016071487C49E5
:209DD4000968D1F18001A0F8B410012180F8B61070476D484FF40051016076490A68520813
:209DF40052000A60744909884906FBD573498A8809684A615FF40031016080206C4908609A
:209E14006A48016851F00101016070476A480188C90612D55FF400315B4A116063490A680F
:209E3400520852000A605749614A1268D2F18002A1F8B420022281F8B62000886049088055
:209E54006048008860490880704760480188890620D55F4A5F490988C905C90D1180494978
:209E74001288B1F89C310B4483F81C21B1F89C21521CA1F89C21B1F89C21802A03DB01227C
:209E940081F89E2102E0802281F89E213B4A1268C1F8A0210088504908804E4800884C49E5
:209EB400088070474FF40070374908604B4801684908490001604A484A490968D1F18001E4
:209ED400A0F8B410012180F8B610704780B50020FEF7E3FA0020FEF7BFFA01BD10B5424CF5
:209EF4002088C0060CD50020FEF701FB3C483D490968D1F18001A0F8B410022180F8B61073
:209F140020883A4908803A4800883A49088010BD39483A4908603A48016849084900016046
:209F34002F4838490968D1F18001A0F8B811012180F8BA11704780B50120FEF7AEFA0120D0
:209F5400FEF78AFA01BD10B52F4C2088C0060CD50120FEF7CCFA22482A490968D1F18001BA
:209F7400A0F8B811022180F8BA11208827490880274800882749088010BD00000027002063
:209F9400000000207C230020040002406C0002402C1D002070000240041B002000440040FC
:209FB40008270020044400400A270020580002405C00024044000240003801405CA3000827
:209FD4000C270020043801400E270020005000401227002004500040102700203000024002
:209FF4007421002034000240004800401427002004480040162700200002001004040240FA
:20A014003004024034040240004C004018270020044C00401A27002080B53D49086850F0F5
:20A03400010008603B4A13683B48034013600B683A4803400B60086830F4802008601068B3
:20A0540030F4FE0010605FF41F003549086000F001F801BD80B500F001F801BD82B000202D
:20A074000190002000902A49086850F480300860086810F4003000900198401C01900098FA
:20A09400002804D101984FF6FF729042F0D10868800302D50120009001E000200090009829
:20A0B400012831D11F48026852F0100202600268920892000260026852F002020260154873
:20A0D4000268026002680260026852F480620260026832F47C120260026852F4E812026054
:20A0F4000A6852F080720A600A689201FCD50168890889000160016851F00201016001680B
:20A1140011F00C010829FAD102B070470000000000100240041002400000FFF8FFFFF6FE27
:20A1340008100240002002403E00420046004A004E00530058005D00620067006D00730040
:20A154007900800087008E0096009E00A600AE00B700C100CA00D500DF00EA00F60001017D
:20A174000E011B0128013601440153016201720183019401A601B801CB01DF01F3010802AE
:20A194001D0234024B0262027A029302AD02C802E302FF021B033903570375039503B503B9
:20A1B400D603F8031B043E0462048604AC04D204F9042005480571059A05C405EF051A067F
:20A1D400460672069F06CC06FA06290757078607B607E607160847087808A90880B5FEF7A3
:20A1F4004FFEFEF7B9FEFEF7C1FE0020FEF74DFF0020FEF7ADFF0020FFF7C9F80020FEF790
:20A21400DCFF0020FFF7B4F90120FEF73EFF0120FEF79EFF0120FFF7BAF80120FEF7CDFFDB
:20A234000120FFF7A5F9DCE710B5074979441831064C7C44163404E00A68081D114488477C
:20A254000146A142F8D110BD080000002800000073A7FFFF0427000018000020000000007F
:20A274009DA7FFFF1800000054000000000000200000000000F00DF8002801D0FFF7D4FF45
:20A29400AFF300800020AFF30080FFF7A7FF00F002F80120704700F001B800000746384674
:20A2B40000F002F8FBE7000080B5AFF30080024A11001820ABBEFBE726000200010000005E
:20A2D400000000000102030401020304060708090204060801488047014800472DA00008AF
:20A2F400F9A20008AFF30080AFF30080FFF7C2FF0008014001000000000801400200000017
:20A314000000000000000000000C014000040000000C014000080000000C01400010000026
:20A334000010014000040000001001400008000000100140000200000008014000020000BD
:20A35400000801400004000000080140000800000010014000100000001401400400000091
:20A374000010014000010000001001403E000000000C0140008000000008014020000000B2
:20A3940000080140800000000008014000010000000C014004000000000C014008000000F0
:20A3B400000C014010000000000C014020000000000C014000010000000C01400002000022
:20A3D40000080140001000000008014040000000000C014001000000000C014002000000EA
:20A3F40000100140400000000010014080000000000C014000200000000C014000400000ED
:20A41400000C014080000000000C0140400000000008014004000000000801400800000030
:20A434000008014010000000FFF7FEBFFFF7FEBFFFF7FEBFFFF7FEBFFFF7FEBFFFF7FEBF7D
:20A45400FFF7FEBFFFF7FEBFFFF7FEBFFFF7FEBFFFF7FEBFFFF7FEBFFFF7FEBFFFF7FEBF50
:20A47400FFF7FEBFFFF7FEBFFFF7FEBFFFF7FEBFFFF7FEBFFFF7FEBFFFF7FEBFFFF7FEBF30
:20A49400FFF7FEBFFFF7FEBFFFF7FEBFFFF7FEBFFFF7FEBFFFF7FEBFFFF7FEBFFFF7FEBF10
:20A4B400FFF7FEBFFFF7FEBFFFF7FEBFFFF7FEBFFFF7FEBFFFF7FEBFFFF7FEBFFFF7FEBFF0
:20A4D400FFF7FEBFFFF7FEBFFFF7FEBFFFF7FEBFFFF7FEBFFFF7FEBFFFF7FEBFFFF7FEBFD0
:04A4F400FFF7FEBFB1
:00000001FF
